:020000040800F2
:10000000000F00209D0100082905000825050008B3
:100010002705000863030008BD3600080000000043
:10002000000000000000000000000000DD060008E5
:100030006503000800000000C5050008B5010008C0
:10004000B7010008B7010008B7010008B7010008B0
:10005000B7010008B7010008B701000869030008EC
:10006000B7010008B7010008B7010008B701000890
:10007000B7010008B7010008B7010008B701000880
:10008000B7010008B7010008B7010008B701000870
:10009000B7010008B7010008B7010008B701000860
:1000A000B7010008B7010008B7010008B701000850
:1000B000D9070008B7010008B7010008B701000818
:1000C000B7010008B7010008B7010008B701000830
:1000D000B7010008B7010008B7010008B701000820
:1000E000B7010008B7010008B7010008B701000810
:1000F000B7010008B7010008B7010008B701000800
:10010000B7010008B7010008B7010008B7010008EF
:10011000B7010008B7010008B7010008B7010008DF
:10012000B7010008B7010008B7010008B7010008CF
:10013000B7010008B7010008B7010008B7010008BF
:10014000B7010008B7010008B7010008B9050008A9
:10015000B7010008B7010008B7010008B70100089F
:10016000B7010008B7010008B7010008B70100088F
:10017000B7010008B7010008B7010008B70100087F
:10018000B7010008B7010008DFF80CD000F070F8E4
:10019000004800479D3B0008000F002006488047AC
:1001A00006480047FEE7FEE7FEE7FEE7FEE7FEE75C
:1001B000FEE7FEE7FEE7FEE77D070008890100088D
:1001C00040EA01039B0703D009E008C9121F08C0D9
:1001D000042AFAD203E011F8013B00F8013B521E59
:1001E000F9D2704710B5044604E00B7800F8013BE3
:1001F00003B1491C521EF8D2204610BD0146002012
:1002000000E0401C0A5C002AFBD170472DE9F05F3A
:100210000546002092469B46884606468146402475
:100220001BE0284641464746224600F042F8524627
:100230005B46801A994110D310461946224600F0B9
:1002400029F82D1A67EB01084F46224601200021AC
:1002500000F020F817EB00094E41201EA4F1010424
:10026000DFDC484631462A464346BDE8F09F0000A1
:10027000064C074D06E0E06840F0010394E80700F3
:1002800098471034AC42F6D3FFF782FF283E0008AF
:10029000483E0008202A04DB203A00FA02F1002040
:1002A00070479140C2F1200320FA03F319439040B4
:1002B0007047202A04DB203A21FA02F0002170471F
:1002C00021FA02F3D040C2F12002914008431946BE
:1002D0007047000010B5074C2060084600F00CF88D
:1002E00020680028FCD1BDE8104000214FF080407C
:1002F00000F081BA000000203EB504464FF0804572
:100300000021284600F077FA00220121284600F05B
:1003100087FA022C02D0012C02D004E00B2001E06D
:1003200042F6DF6001900520ADF800000020ADF836
:100330000800ADF802006946284600F079FA01216C
:10034000284600F055FA0121284600F047FA01221C
:100350001146284600F064FA0121284600F04BFAC5
:100360003EBDFEE77047000010B5022000F016F811
:10037000002809D00548D0F8800040698047BDE8D2
:100380001040022000F004B810BD000064060020F8
:100390000149086070470000143C0140064A0146CC
:1003A00000201268044B0A4014331B680B4202D031
:1003B000002A00D001207047003C0140F0B5002227
:1003C00001234FF0030C00BF0D6803FA02F425402F
:1003D000A5422DD1066854000CFA04F5AE43066020
:1003E0000E790768A6403E4306600E79012E01D0C3
:1003F000022E12D18668AE4386604D798668A5408C
:1004000035438560456803FA02F6B54345604568A3
:100410008E799640B6B235434560C56856000CFAF1
:1004200006F7BD43C560CD79A540C4682543C560C6
:10043000521C102AC8D3F0BD4B07DB0E9A40C908E6
:1004400010B500EB8100016A0F249C40A1430162BA
:10045000016A1143016210BD0246002012690A427E
:1004600000D001207047418370470183704700EB43
:1004700081000022C0F85023104670474069806810
:1004800080B27047D0F8CC000068C0F3414070479C
:10049000084490F88C037047084490F89B03704719
:1004A00000EB8100D0F85003704710B504460020DF
:1004B0000246C4F8100304EB8003C3F81423C3F806
:1004C0005023231883F88C23401CC0B20F28F2D38A
:1004D0000820A4F8B203204602F094F9204601F067
:1004E0008FFF204601F0C8FE0121204602F0ECF902
:1004F000204601F001FF204601F0A8FF002010BDBA
:10050000D0F81003704710B502F066F9002010BD56
:100510000022431883F89B2300EB4113C3F8C02348
:1005200002F0A7B8FEE7FEE77047000070B50F21A4
:10053000C478027801234FF0E026E4B1124C24681D
:1005400004F4E064C4F5E064C4F30724C4F10405D2
:10055000E1404478AC4085780D4025430B4C29019F
:100560001155007800F01F018B40400906EB800018
:10057000C0F8003170BD02F01F008340500906EB47
:100580008000C0F8803170BD0CED00E000E400E0B8
:100590000249084302490860704700000000FA055C
:1005A0000CED00E0024A114001430248016070472F
:1005B00080FFFF1F08ED00E0014801F0E5B90000F1
:1005C000B800002070470000044A0029116801D0DB
:1005D000014300E081431160704700003038024061
:1005E000044A0029116801D0014300E081431160F1
:1005F0007047000034380240044A0029116801D0D5
:10060000014300E081431160704700004038024020
:10061000044A0029116801D0014300E081431160C0
:10062000704700004438024030B5224B1968224A16
:1006300011F00C0104D0214D042903D0082903D066
:1006400002601DE005601BE01A49091F0C68C4F335
:10065000805C0C68BCF1000F04F03F0402D0B5FBD5
:10066000F4F201E0B2FBF4F20C680968C4F38814F8
:100670006243C1F30141491C4900B2FBF1F1016041
:1006800019680F4A01F0F0010909545C0168E14062
:1006900041601C6804F4E054A40A145D21FA04F4D7
:1006A00084601B6803F460435B0BD25CD140C16083
:1006B00030BD0000083802400024F40040787D017D
:1006C0007C0000200349044A31F8101052F8200041
:1006D000FFF7C2BEE43D0008AC00002070470000F8
:1006E000224900200A6842F480320A604FF4A06375
:1006F0000A6800F1010012F4003F01D19842F7D1DD
:100700000868800331D519484030026842F08052B1
:1007100002601748026842F48042026013480830C1
:1007200002680260026842F400420260026842F419
:10073000A0520260031F0F4A1A600A6842F08072DA
:100740000A600A689201FCD50B4A40F2056111600B
:10075000016821F003010160016841F002010160BC
:100760000168C1F381010229FAD1704700380240C3
:100770000070004019544007003C0240124810B578
:10078000016841F4700101601048016841F0010105
:1007900001600E4A00210832116002680C4B1A40B9
:1007A0000260031D0B4A1A60026822F48022026074
:1007B00006480C300160FFF793FF03494FF00060DB
:1007C0008039086010BD000088ED00E0003802406C
:1007D000FFFFF6FE1030002401F02CBD0029018837
:1007E00002D041F0800101E021F0800101807047DA
:1007F000C943018270470029018802D041F00101FC
:1008000001E021F0010101807047038A0022808904
:100810000B4200EA010001D000B1012210467047EE
:10082000002A828901D00A4300E08A43828170470E
:1008300030B50288174B184C98420DD0A0420BD00F
:10084000B0F1804F08D0154DA84205D0144DA842F4
:1008500002D0144DA84204D122F0700C4A8842EA1A
:100860000C02114DA84207D0104DA84204D022F42A
:10087000407C0A8942EA0C0202804A68C2620A8805
:100880000285984201D0A04201D1897A01860121D6
:10089000818230BD0000014000040140000400409E
:1008A00000080040000C0040001000400014004010
:1008B0000029818902D041F4005101E021F4005166
:1008C0008181704770B5012186B00846FFF77CFE34
:1008D00001210846FFF778FE01211020FFF798FE5E
:1008E000224E072209213046FFF7A6FD07220A21E2
:1008F0003046FFF7A1FD02218DF8041000248DF889
:10090000064070158DF80510009001258DF80750F0
:1009100069463046FFF752FDA80200908DF8065058
:100920008DF8074069463046FFF748FD4FF4E13047
:10093000ADF80C400290ADF80E40ADF81040ADF8A7
:1009400014400C200A4CADF8120002A9204600F019
:1009500031F8012240F22551204600F012F8012121
:100960002046FFF7A5FF06B070BD00000000024062
:10097000001001400246002012880A4200D00120E7
:100980007047C1F3421301F01F0C012101FA0CF171
:10099000012B07D0022B07D01430002A026805D0A3
:1009A0000A4304E00C30F8E71030F6E78A430260AF
:1009B000704700007FB50446008A0D4620F4405180
:1009C000E88808432082A08941F20C618843A98805
:1009D0002A8911436A8902431143A181A08A20F424
:1009E0004071A8890843A0826846FFF71DFE1D4894
:1009F000844202D01C48844201D1039800E002984E
:100A0000A1890904002900EBC00101EB001029684D
:100A100002DA4FEA410101E04FEA8101B0FBF1F057
:100A20006422B0FBF2F14FEA01114FEA11136FF0AB
:100A300018056B4300EB8300A3891D044FF03203BC
:100A400006D503EBC000B0FBF2F000F0070005E0B4
:100A500003EB0010B0FBF2F000F00F000843208120
:100A60007FBD00000010014000140140C1F30801E7
:100A7000818070472DE9F05F644E0125002296F8D1
:100A80008E300C464FF00B084FF00A0A41F6D109A0
:100A900042F6015B0D2B1BD2DFE803F0071B35414B
:100AA0004D5864707C91A9AEB30059A002F008FEC5
:100AB000618D494505D1A08DB0F5345F7AD0584598
:100AC000FCD0012086F88E004FF6FF70A6F81002C9
:100AD00098E0C0230B7533234B75CA820A83022723
:100AE0004F833B46514A00F005FB0028F0D1B6F891
:100AF000100218B186F88E704DA05DE00C2086F8CB
:100B00008E0054A058E0414B0022903300F07CFA54
:100B1000002877D1032086F88E0059A04CE03B4B8B
:100B20000122D03300F070FA00286BD1042086F83F
:100B30008E0059A040E05D4B022200F065FA0028CB
:100B400060D1052086F88E0059A035E0574B03226E
:100B5000403300F059FA002854D1062086F88E0060
:100B600059A029E0314B0422803B00F04DFA0028C7
:100B700048D1072086F88E0058A01DE02B4B052297
:100B8000403B00F041FA00283CD1082086F88E0056
:100B900056A011E040230B7535234B75CA820A839A
:100BA0004A8300231A4600F0A5FAF8B9092086F80E
:100BB0008E0000E014E052A002F082FD22E012223A
:100BC00000F0AAFB90B986F88E80A08D3080618DF0
:100BD000494508D1A08DB0F5345F01D0584502D108
:100BE00086F88EA00EE00C2086F88E000AE000F059
:100BF00091F986F88E8005E0002586F88F2048A0C0
:100C0000DAE704252846BDE8F09F0000E808002048
:100C10003E205553425F41444B5F436C61737352B6
:100C20006571756573740D0A00000000F80A0020F4
:100C300041444B3A64657669636520737570706FE3
:100C40007274732070726F74636F6C2031200D0AA0
:100C50000000000041444B3A636F756C64206E6F76
:100C600074207265616420646576696365207072C2
:100C70006F746F636F6C2076657273696F6E0A00B4
:100C800041444B3A53454E445F4D414E55464143D6
:100C900054555245520D0A0041444B3A53454E4477
:100CA0005F4D4F44454C0D0A00000000F80900203C
:100CB00041444B3A53454E445F4445534352495097
:100CC00054494F4E0D0A000041444B3A53454E449F
:100CD0005F56455253494F4E0D0A000041444B3A6E
:100CE00053454E445F5552490D0A000041444B3A6A
:100CF00053454E445F53455249414C0D0A00000094
:100D000041444B3A73776974636820746F20616360
:100D1000636573736F7279206D6F64650D0A0000EF
:100D200041444B3A636F6E66696775726174696FAF
:100D30006E20636F6D706C6574652E0D0A00000087
:100D400001498978FFF793BBE80800202DE9F041BD
:100D5000274E054696F88F0038B10027012806D0A7
:100D600002283CD003283ED11CE0012017E0F17896
:100D70002846FFF791FBF1782846FFF789FBF178C9
:100D80002846FFF78DFBB6F88C203AB11849F37866
:100D90004A31284600F080F9A6F88C70032086F8C6
:100DA0008F0020E0B1782846FFF776FB0446B17843
:100DB0002846FFF76DFBB1782846FFF771FB012C41
:100DC00003D90CA002F07CFC0DE00949B378402265
:100DD0000A31284600F04CF986F88F7003E006F1DE
:100DE0008C06F77037804FF00000BDE8F0810000FE
:100DF000E808002074657374000000002DE9F047D6
:100E00008846DDE9089A144601461D4640221A48E4
:100E1000FFF7E8F9184E0027B61E402286F8417009
:100E2000414606F14200FFF7DDF986F88170402265
:100E3000214606F18200FFF7D5F986F8C1704022FD
:100E4000294606F1C200FFF7CDF986F8017140226C
:100E5000494606F58170FFF7C5F986F841714022D1
:100E6000514606F5A170FFF7BDF986F8817137701C
:100E700004207070BDE8F0877809002070B5044642
:100E800013A002F01DFC174D002604F29B3085F8DC
:100E90008E60A9780E5495F88F00042802D10120A5
:100EA000C4F81003E97839B1204601F050FBE97825
:100EB000204600F0D7F9EE70A978002907D0204627
:100EC00001F045FBA978204600F0CCF9AE7070BD6A
:100ED0003E205553425F41444B5F4465496E6974FF
:100EE0000D0A0000E808002010B504480024048022
:100EF000448003A002F0E4FB204610BD72090020EC
:100F00003E205553425F41444B5F496E69740D0A60
:100F1000000000002DE9FC4105460C461FA002F030
:100F2000CFFB94F85200254E010604D57071B4F839
:100F30005400F08003E03071B4F85400308194F82C
:100F40005A00010604D57071B4F85C00F08003E02B
:100F50003071B4F85C0030813179284600F06EF8C9
:100F6000F0707179284600F069F8B0703089022776
:100F7000CDE9007004F12004F178637822782846E6
:100F800000F056FDF088CDE9007063782278B178E2
:100F9000284600F04DFD0020BDE8FC8141444B3A5D
:100FA000636F6E6669677572652062756C6B20652C
:100FB0006E64706F696E740A00000000E80800201B
:100FC000014890F88F007047E80800202DE9F041B3
:100FD0000C4E884615460024B178FFF761FA0027C9
:100FE000024606F10A01A84202D32C46224601E03D
:100FF0002AB104464046FFF7E3F8A6F88A70A0B28B
:10100000BDE8F081E80800202DE9F04107460C46D4
:1010100016461D461846FFF7F1F8401C83B24020E3
:101020002075342060750020E082268363832A4681
:1010300021463846BDE8F04100F05CB810B500220A
:101040004FF6FF7300EB4204B4F88C45240409D436
:101050009A4205D000EB420041F40041A0F88C1503
:10106000D0B210BD521CD2B2082AEBD31A46F7E711
:1010700010B58C46194600EB4114012384F8AE33B9
:10108000C4E9EEC294F8C42302B1022284F8B42366
:10109000FFF73EFA002010BD10B58C46194600EB54
:1010A0004114002384F8AE33C4E9EEC294F8C5239A
:1010B00032B1022284F8B423FFF72AFA002010BDCF
:1010C00084F8B433F8E70121C0F81013002070470A
:1010D00010B58C46194600EB411404F56B740123DE
:1010E000A3704FF002032372C4E903C2FFF710FAA2
:1010F000002010BD30B50120CD780446012D0BD065
:10110000022D08D10A7F0D2A10D00B2A12D00C2AEA
:1011100001D1CC70032030BD0D784D7007250D70C6
:101120008A608B810C770222CA7030BDCC7000209F
:10113000087730BDCC70022030BD000010B58C4661
:10114000194600EB4114002384F8AE33C4E9EEC223
:101150001AB194F8C5235AB102E0012284F8C523DC
:10116000022284F8B42300BFFFF7D2F9002010BD9B
:1011700084F8B433F8E78C46114600EB411310B500
:1011800003F56B7300229A704FF003021A724FF04E
:101190000802C3E903C2FFF7BBF9C0B210BD0221C8
:1011A000002200EB4103491CC9B2A3F88C25082991
:1011B000F7D30020704770B50546002008704870CE
:1011C0000C4688700121E17021774022A27184F8D9
:1011D000200084F821102179284600F043F8617935
:1011E000284600F03FF8002070BD0021C0F8101321
:1011F0000846704770B50A25044605290DD0042914
:101200000BD0062911D109A002F05AFA2570D4F8A2
:1012100080000068BDE87040004709A002F050FA65
:10122000D4F88000406C8047257070BD555342480B
:101230005F4150504C595F4445494E49540D0A0096
:101240007370656564206572726F72206F722075AD
:101250006E7265636F7665726564206572726F7217
:101260000D0A0000082908D200EB410101F28C5060
:10127000B1F88C15C1F30E0101800020704730B425
:1012800042F08002DDE9024C0A7506224A7503220B
:10129000CB82B2EB132F02D140F2094200E00022D0
:1012A0000A83A1F81AC0224630BC6346FFF722BF6A
:1012B0000A8803781A440A800178084470470000BD
:1012C0002DE9FC47154600F58878CDE90085002416
:1012D00007460E464FF400732246FFF7D0FF5FEA41
:1012E000000907D013E0391991F810110155641C59
:1012F000A4B200E00748AC42F5D3434606F15002E1
:1013000006F13E0106F13400009500F0BBFB4846B3
:10131000BDE8FC87E80600207CB50446154600F5CC
:101320008870CDE900050E464FF4807300222046F8
:10133000FFF7A5FF002830D104F58874082D217827
:1013400006F8221F61787170A178E27801EB022122
:1013500071802179317161797171A179B171E1790E
:10136000A4F58874F17118D904F58C742178627829
:1013700001EB02213181A178E27801EB0221718138
:101380002179627901EB0221B181A179B173E1790F
:10139000F173217A3174617A71747CBD7CB51E461B
:1013A000069D00F5887442F440730022CDE90045A3
:1013B000FFF765FF010014D16078032811D1207870
:1013C000821EAA4200DC1546A41CAAB2002004E03A
:1013D000235C801C06F8013B80B29042F8D30020C9
:1013E000307008467CBD00002DE9F05F00260C46F9
:1013F0008E748046097F0B2709250120DFF8B891FC
:101400004FF0080B4FF0050A0C2917D2DFE801F066
:10141000D1060E39415A677B84A3B4C4627904F1C2
:1014200014014046FFF7A7FE0220BBE06179404669
:10143000FFF732F8012802D003281ED0B9E0207D42
:10144000618B00F0800051B141F28832A9F8002090
:10145000802802D084F81CA008E0032005E0322296
:10146000A9F80020802806D0072020774046FFF703
:1014700005F820829DE02577F8E7277784F812A009
:1014800097E02379A2894046A168FFF721FE042056
:1014900088E021794046FEF7FFFF01280DD004289F
:1014A0000DD0032876D04046FEF7E8FF218A411A86
:1014B000B9F8000081426DD87BE02577F3E76078CA
:1014C000207076E0617908EB411181F8C5036379FA
:1014D000A2894046A168FFF731FE062062E06179EB
:1014E0004046FEF7D9FF012804D0042804D0022882
:1014F00006D049E0072055E0607820700C2051E0CC
:1015000084F81CA055E00022237911464046FFF7DD
:10151000DFFD84F81CB04CE021794046FEF7BCFFAB
:10152000054601280DD0032D34D04046FEF7A6FF16
:10153000218A411AB9F8000081422BD8042D04D029
:1015400037E0607820700D202CE060782070042057
:10155000A07403262DE06079002208EB401090F87B
:10156000C51381F0010180F8C51363791146404627
:10157000FFF7E4FD0A2015E061794046FEF78CFF95
:101580000128DED0022803D0032803D011E001E0B7
:1015900025770EE027770CE0A17B491CC9B2A17327
:1015A000022901D8207704E084F812B06078207016
:1015B00002263046BDE8F09F680000202DE9F04388
:1015C000804601258878FF2693B00C462F464FF0C1
:1015D00000090A2863D2DFE800F0052739636F8528
:1015E0009EB9CFDC082221464046FFF795FE002831
:1015F00055D16CA002F064F894F82900A07140461F
:10160000FEF781FFA770A0790023CDE900904E4638
:1016100061791A46404600F09BF9A0790023CDE994
:10162000006021791A4637E0122221464046FFF732
:1016300073FE0028DCD165A002F042F8D4F88000E7
:10164000C16904F1220088470220A0E0012221465E
:10165000404600F0F7FB0028CAD162A002F030F843
:10166000022000F003FE04F104042777E06F006A13
:101670008047032004F8020CCDF80090CDF80490C8
:101680004E46227F21780023404600F061F9009603
:101690000196227F61780023404600F059F97CE0F2
:1016A000092221464046FFF70BFE002875D151A0C4
:1016B00002F006F804206AE0E28E21464046FFF779
:1016C000FFFD002869D155A001F0FAFFD4F8800091
:1016D00004F1500204F13E01436A04F134009847DA
:1016E000052054E094F83000062780B153A001F0A3
:1016F000E7FF009694F8302002AB21464046FFF702
:101700004DFE002849D1D4F88000816A15E0D4F854
:101710008000816A16E094F8312007277AB102AB85
:10172000214640460096FFF739FE002835D14FA0EC
:1017300001F0C6FFD4F88000C16A02A803E0D4F823
:101740008000C16A54A08847A77026E094F8322030
:1017500008276AB102AB214640460096FFF71EFEFD
:10176000D8B94EA001F0ACFFD4F88000016BE4E7DB
:10177000D4F88000016BE5E794F839202146404613
:1017800000F06CFB48B951A001F09AFF0920A0704D
:1017900003E054A001F094FF002513B02846BDE8F3
:1017A000F0830000476574204465766963652044D2
:1017B00065736320666F72206F6E6C79203173746D
:1017C00020382062797465730D0A00006765742003
:1017D00066756C6C20646576696365206465736307
:1017E0000D0A000073657420616464726573730D83
:1017F0000A000000676574207374616E646172642E
:1018000020636F6E66696775726174696F6E2064BC
:10181000657363726970746F720D0A006765742076
:1018200046554C4C20636F6E666967206465736330
:10183000726970746F720D0A00000000436865637E
:101840006B2074686174204D616E75666163747598
:1018500072657220537472696E67206973206176B5
:1018600061696C61626C650D0A0000004368656324
:101870006B20746861742050726F64756374207398
:101880007472696E6720697320617661696C616248
:101890006C650D0A000000004E2F4100436865632F
:1018A0006B20746861742053657269616C206E7579
:1018B0006D62657220737472696E6720697320614E
:1018C0007661696C61626C650D0A00007365742055
:1018D000636F6E66696775726174696F6E200D0A59
:1018E00000000000757365722063616C6C62616357
:1018F0006B20666F7220656E756D65726174696FBD
:101900006E20646F6E65200D0A0000002DE9F04125
:1019100007462DED028B0E4614461D469DED088AA6
:1019200000F042FC21463846FFF745FCE56784EDB0
:10193000208A31463846FEF7B8FDD4F880000068AA
:101940008047BDEC028B3846BDE8F04100F018BC82
:1019500010B500EB4114DDF80CC00AB184F8AC23DB
:10196000B4F8B223624504D0BCF1000F01D0A4F852
:10197000B2C394F8AF239A4202D00BB184F8AF33CC
:1019800000F004FE002010BD38B5054600240020FC
:101990000090284600F0FAFE002847D0284600F0C4
:1019A000FDFE0090009808B9002038BD0098C0F3F3
:1019B000C00018B1284601F057FE04430098C0F358
:1019C000001018B1284601F0B0FD04430098C0F3A0
:1019D000401018B1284601F0EEFB04430098C0F314
:1019E000806018B1284601F00BFD04430098C0F355
:1019F000406018B1284600F0B6FF04430098C0F3D9
:101A0000006018B1284601F06BFC04430098C0F355
:101A1000407018B1284600F06DFF04430098C0F3F1
:101A2000405018B1284600F07BFF04432046BCE735
:101A30002DE9F04100EB410404F28C55B4F88C45DB
:101A4000DDE9066C04F07F0700EB411404F56B74CC
:101A500067702D88C5F3C015A57022706671A4F853
:101A600006C0E3704FF0000222766276A4F56B7434
:101A700013B9012284F8B02300F088FD0020BDE8EE
:101A8000F08100002DE9FF5F06468B4618780E991D
:101A900030705878707091469878DA781C4600EB70
:101AA00002207080187930715A7972719A79B27106
:101AB000DA79F271227A3272092969D90921ADF8ED
:101AC0000C1002285BD95FE003A92046FFF7F0FB6A
:101AD00004464078042852D194F9027007EBC700FD
:101AE00000EB0B0AE078032849D22146684600F053
:101AF00053F89DF804000025022840D83BE003A9D4
:101B00002046FFF7D5FB04464078052833D109EB82
:101B1000071000EBC5081F480078B84202D01D48E6
:101B2000077007E02079617900EB012119484088AE
:101B3000814224D36946504600F02EF8207888F878
:101B40000000607888F80100A07888F80200E0784A
:101B500088F80300207961796D1C00EB0120A8F85A
:101B60000400A07988F80600207961796DB200EB55
:101B70000120084948809DF80400A842BFDC708815
:101B8000BDF80C1088429FD80248002141800170A6
:101B9000BDE8FF9F540000200A7802704A78427026
:101BA0008A788270CA78C2700A7902714A79427161
:101BB0008A798271CA79C271097A0172704700000C
:101BC0002DE9FC410C460646FEF79AFC48B9207800
:101BD00038B165A001F074FD2078022801D0022000
:101BE00020702078002704F120050B284ED2DFE872
:101BF00000F00615A44D4F7182895E8F9400304627
:101C0000FEF77EFC002841D05FA001F059FD0120C5
:101C10002070BDE8FC41642000F028BBD4F88000AF
:101C20008068804700213046FFF708FA6071802104
:101C30003046FFF703FA20713046FEF764FC0028B7
:101C400024D159A001F03CFD04F10404E06FC06808
:101C500080473046FEF716FCC0B26077042104F8D6
:101C6000041CE16F89698847A078CDE90070637F23
:101C7000227F21783046FFF7DBFEA078CDE90070A7
:101C8000637F227F61783046FFF7D2FEBDE8FC819A
:101C900021463046FFF792FC0028F7D14CA001F016
:101CA0000FFDD4F88000406B8047082010E0D4F886
:101CB0008000806B80470128E8D150A001F000FD32
:101CC000E06F21460268304690470028DED10520AB
:101CD0002070DBE7E06F21468268304690470100C4
:101CE00004D1514801F0ECFC0620F1E72046BDE8A4
:101CF000FC41FFF77FBAE06F2146C268304690474B
:101D00000146F3E721463046BDE8FC41FFF76CBBD6
:101D1000BDE8FC4145A001F0D3BC21463046FFF7A9
:101D20004AFAD4F8800040688047E06F294642684C
:101D300002B03046BDE8F0411047D4F88000006999
:101D4000804721463046FFF736FAD4F880004068D5
:101D50008047E06F29464268304690473046FFF79B
:101D60001EFA277092E70000636865636B20666F58
:101D70007220486F737420706F7274206576656E80
:101D800074730D0A00000000484F53545F444556D9
:101D90005F415454414348454420697320656E7443
:101DA00065720D0A00000000484F53545F444556C9
:101DB0005F41545441434845442073746174652025
:101DC0007265736574206465766963650000000060
:101DD000484F53545F454E554D45524154494F4E1F
:101DE00020737461746520656E756D6572617469C8
:101DF0006F6E206973206F6B00000000484F5354D2
:101E00005F5553525F494E50555420737461746549
:101E1000203A20757365725F696E707574206973FE
:101E2000206F6B0D0A000000803D0008484F53549E
:101E30005F53555350454E4445440D0A0000000081
:101E40000020704730B400230B7505244C75CA82FE
:101E50000B834B8330BC1A46FFF74CB930B40023D8
:101E60000B7509244C75CA820B834B8330BC1A4610
:101E7000FFF740B910B502A001F022FC002010BD10
:101E80003E20555342485F5553525F41444B5F419A
:101E900070706C69636174696F6E0D0A00000000F8
:101EA00070B5054648790C46082802D0032802D0B0
:101EB00006E0094901E00849223108A001F000FCD0
:101EC000A279617907A001F0FBFB2A7AE979BDE8E4
:101ED00070400AA001F0F4BB263D000825730D0AEE
:101EE00000000000496E74657266616365203A20E7
:101EF0002530325820253032580D0A00506F776552
:101F00007220696E666F3A20626D41747472696204
:101F1000757465733A3078253032582C20624D61E3
:101F200078506F7765723A25640D0A0001490020E8
:101F3000087070470400002070470000014902A0AB
:101F400001F0BEBB703C000825730D0A00000000C4
:101F5000014902A001F0B4BB853C000825730D0ABD
:101F60000000000001A001F0ABBB00003E20446572
:101F700076696365206E6F7420737570706F72740C
:101F800065642E0D0A00000038B1012808D002282F
:101F900009D0064906A001F093BB04495C39F9E772
:101FA00002493D39F6E701491E39F3E7143D0008BF
:101FB00025730D0A0000000010B50446018904A035
:101FC00001F07EFB6189BDE8104001A001F078BB03
:101FD000564944203A2025303458680D0A00000044
:101FE000014902A001F06CBB9D3C000825730D0A5D
:101FF00000000000094810B5417800290CD10121EA
:10200000417007A001F05CFB0BA001F059FBBDE89B
:10201000104011A001F054BB10BD000004000020CE
:1020200020555342204F5447204653204D534320C0
:10203000486F73740D0A00003E2055534220486FCC
:102040007374206C69627261727920737461727446
:1020500065642E0D0A0000002020202020555342E8
:1020600020486F7374204C696272617279207632F5
:102070002E312E300D0A0000014601A001F020BBD8
:102080004D616E756661637475726572203A2025C4
:10209000730D0A0001A001F013BB00004F766572BA
:1020A00063757272656E74206465746563746564CB
:1020B0002E0D0A00014601A001F002BB50726F64B0
:1020C000756374203A2025730D0A000001A001F009
:1020D000F7BA00007265736574206465766963659C
:1020E0000D0A0000014601A001F0EABA53657269C9
:1020F000616C204E756D626572203A2025730D0A61
:1021000000000000014902A001F0DABA613D0008B8
:1021100025730D0A0000000010B500240220FEF710
:10212000D1FA00B90124204610BD00001CB50121E0
:102130008020FEF749FA0820009003208DF8050062
:1021400001208DF8040000208DF80600054C8DF864
:10215000070069462046FEF731F908212046FEF7C0
:1021600084F91CBD00000240044800294FF008011A
:1021700001D0FEF778B9FEF778B900000000024000
:1021800008B54FF4C060FEF703FA43208DF8000055
:1021900001208DF8010003218DF802108DF8030055
:1021A0006846FEF7C3F908BD3EB501210846FEF7B3
:1021B0000BFA4FF4C050009003208DF80500022068
:1021C0008DF8040000208DF80600194C8DF80700EA
:1021D00069462046FEF7F2F80A220B212046FEF758
:1021E0002BF90A220C212046FEF726F9012188034B
:1021F000FEF70EFA01218020FEF7F2F90021A0027D
:10220000FEF7D0F94FF4A060FEF7C2F91C208DF85C
:10221000080001208DF809008DF80A008DF80B00E8
:1022200002A8FEF783F901210846FEF7E5F93EBD55
:102230000000024010B501218C072046FEF7E5FAA8
:10224000002809D001212046FEF7D2FA0649086885
:1022500018B10868401E086010BD2046BDE8104057
:102260000021FEF7C8BA0000000000200121FEF79F
:1022700031B80221FEF72EB870B50446017A002568
:10228000C068012915D0C16841F04001C1602046F5
:1022900000F086F8617A4FF4341009B14FF47410ED
:1022A000E16888631420FFF7E1FFE078012819D086
:1022B00020E0816B627A21F480310AB141F480110F
:1022C0008163E068C16821F0401121F42021C160E0
:1022D000204600F065F8E07801280BD1E1682A205B
:1022E0008860E2E7E068816821F01E010A3141F070
:1022F00020018160284670BD2DE9F0410027044689
:102300003D463E46FFF712FFD4F80C010660207AE6
:1023100001280FD00121204600F02CFA204600F0C1
:102320005BFA6069016821F004010160E07A01282C
:1023300002D015E00021EEE7E068802141623046DE
:1023400061F30F00E268602161F31F409062E022B8
:10235000304662F30F0061F31F40E168C1F80001ED
:102360001021204600F0BCF8204600F09BF84FF00A
:10237000FF3107E004EB850050F8902F9160006872
:10238000C6606D1C2078A842F4D80121204600F0D8
:102390003FF8204600F062F83846BDE8F0810000C2
:1023A0002DE9F8434FF00008054644464746CDF86E
:1023B0000080124E0320FFF75CFFE8680069009080
:1023C000641CB44202D90020BDE8F88300980028BC
:1023D000F0DA0099002041F001010091E9680F61F5
:1023E000E9680A690092401CB04202D8009AD207FC
:1023F000F7D10320FFF73DFF4046E5E7400D03001E
:10240000C0680021826822F001028260084670479D
:1024100070B505460C46FFF7A7FE284600F0C3F945
:10242000C10408D4012C0CD1D5F8CC1040F4805054
:102430000860C10405D524B9D5F8CC1020F480502B
:102440000860BDE87040C820FFF710BFC0680021D9
:10245000826842F0010282600846704710B5C36886
:10246000002211469A61C468531E6361C4686360A8
:10247000C4686FF080436361C468094BA361C3788B
:1024800003B91021C36841F00C5141F0080198696B
:1024900041F40011884308439861104610BD0000C4
:1024A0000008008038B50024014620460094009AB8
:1024B00042F010020092009ACB681A61074AC9687C
:1024C0000B690093401C904202D8009BDB06F7D4B6
:1024D0000320FFF7CEFE204638BD0000400D03006C
:1024E00038B50024024620460094009B43F02003A8
:1024F0000093009B61F38A1300930099D3681961DC
:10250000074BD1680A690092401C984202D8009A91
:102510009206F7D40320FFF7ACFE204638BD00003A
:10252000400D030010B500EB8100002350F8901F10
:102530004FF00042012464F3DC420A610068016844
:1025400021F0804141F000410160184610BD10B5F6
:1025500000EB81010022D1F89030196841F0404130
:1025600011F4402F09D0C1F38144022C05D04069F9
:10257000006910F47F0F03D004E0C068C06AF8E778
:1025800021F000411960104610BD0000F0B500EBCD
:1025900081040025D4F890602F466B1E3A46B36044
:1025A000C378012B00D1042200EB411393F8B163EF
:1025B00036B1012E1DD0022E02D0032E23D10EE003
:1025C00042F0890293F8AE6342F4826276B993F8DE
:1025D000B06342F04002B6B142F0200213E042F094
:1025E000990293F8AE6342F4C06266B142F480721D
:1025F00009E042F0010293F8AE6342F4087216B1AA
:1026000042F08002F2E7D4F89060F26001228A4042
:1026100041698E6916438E61C068816941F000711D
:10262000816193F8AC0360F39C5793F8AD0360F3BA
:10263000CE2793F8AE0360F3CF3793F8AF030228A9
:102640000DD027F4003000BF93F8B113B3F8B223D4
:1026500061F3934062F30A00032903D004E047F4D6
:102660000030F1E740F00050D4F8901008602846A0
:10267000F0BDF0B500EB41140027D4F8BC230646AA
:102680004FF480753B466AB1B4F8B2030244521E5F
:10269000B2FBF0F292B2AA4205D900022A46C4F86F
:1026A000BC0300E0012294F8AE03A8B1B4F8B20371
:1026B0005043C4F8BC0360F3120362F3DC4394F8A4
:1026C000B40306EB810260F35E73D2F890000361FD
:1026D000F078012803D007E0D4F8BC03EBE7D2F888
:1026E0009030D4F8B803586152F8900F0368304620
:1026F00000F046F860F35D73126823F0804040F00C
:1027000000401060F07898BB94F8AE0380BBD4F81A
:10271000BC0368B394F8B12332B1012A11D0022A64
:1027200002D0032A1AD10CE0F268D36AC01CC0F3AD
:102730008F009BB2834211D2906940F020009061DB
:102740000CE072691269C01CC0F38F0092B2824221
:1027500004D2F068826942F080628261D4F8BC03DE
:102760000A4683B2D4F8B8030146304600F092FF1F
:102770003846F0BD4269106861F30100106070478F
:102780004069806840F30000401C7047C0684069A1
:1027900000F00100012800D000207047C0684169A6
:1027A000806908407047D0F8CC00006820F02E0007
:1027B0007047406940697047034610B508460021DC
:1027C000D21C9208D3F8D03003E01C6840F8044BC8
:1027D000491C9142F9D310BD70B50546FFF7E3FFE0
:1027E00040F4807455F8CC0F04600A20FFF73EFDDA
:1027F000296824F4807008601420FFF737FD012059
:1028000070BD000070B500220125C27040268570A1
:10281000144613468680012901D061B114E0C572C7
:102820000821017004214FF0A04241709115C18030
:102830000221017208E0C3720C210170062141706F
:10284000204A4FF4A061C18002F50061C0E9032174
:1028500000210CE002EB411303F5106500EB810C45
:1028600003F53063CCF81850491CCCF85430437849
:102870008B42EFD802F5806141614031C0F8CC1045
:10288000002108E002EB411300EB810503F5A06392
:10289000491CC5F8903003788B42F3D8002108E03A
:1028A00002EB013300EB810503F58053491CC5F8A9
:1028B000D03003788B42F3D802F56062C0F80C2167
:1028C000204670BD0000044010B5C2680024D068E6
:1028D000012920F0C04001D019B104E040F00050BF
:1028E00001E040F08040D0603220FFF7BFFC20467E
:1028F00010BD000038B5044600200090074800686D
:10290000816820468847009820F0005000F1005070
:1029100000900098E1684861012038BD6400002003
:102920000CB50146D1F8900000680090009820F0A6
:10293000004000F100400090009820F0804000F13D
:1029400080400090009AD1F8900002600020019031
:10295000019820F4001000F5001001900198CA6859
:10296000506101200CBD7CB5054600240026284698
:10297000FFF71FFF019000BF1BE0019880B201210B
:10298000A140084214D005F1900050F824000068DE
:1029900000900098C0F3C03028B12146284600F0CE
:1029A0000DF8064304E02146284600F01CFA0643D1
:1029B000641C2878A042E0D830467CBD70B586B053
:1029C00005460C4605F1900050F82460B06805906B
:1029D000F0680490DDE904100840059005F19000CE
:1029E00050F8240000680390002004900598C0F37C
:1029F0008000D0B100200190019820F00400001D5B
:102A000001900198B06005F1900050F82400C06872
:102A10000190019820F00200801C019005F19000C7
:102A200050F824000199C16073E00598C0F340108C
:102A300048B100200190019820F020002030019042
:102A40000198B06065E00598C0F3C00078B305F167
:102A5000900050F82400C0680190019820F0020016
:102A6000801C019005F1900050F824000199C1608C
:102A7000052105F56370015500200190019820F0B3
:102A80001000103001900198B06000200190019872
:102A900020F00800083001900198B060059820F0FF
:102AA00010000590E1B22846FFF751FD31E0FFE745
:102AB0000598C0F3802060B305F1900050F8240021
:102AC000C0680190019820F00200801C019005F17F
:102AD000900050F824000199C160E1B22846FFF748
:102AE00036FD00200190019820F010001030019078
:102AF0000198B060082105F5637001550020019030
:102B0000019820F4806000F5806001900198B06029
:102B100000BF0598C0F34020F8B105F1900050F8CF
:102B20002400C0680190019820F00200801C0190F0
:102B300005F1900050F824000199C160E1B22846E7
:102B4000FFF705FD00200190019820F4007000F5CA
:102B5000007001900198B06042E10598C0F3000058
:102B6000002871D0E878012812D105F1900050F8C2
:102B700024000069029005F56B7000EB44100069B9
:102B80000299C1F31201411A05F5547040F824105E
:102B9000012105F5637001550021783840F82410B3
:102BA00000200190019820F00100401C0190019844
:102BB000B0600398C0F3814020B10398C0F3814016
:102BC00002282AD105F1900050F82400C068019035
:102BD000019820F00200801C019005F1900050F84F
:102BE00024000199C160E1B22846FFF7B0FC002043
:102BF0000190019820F01000103001900198B06011
:102C000005F56B7000EB4410007E80F0010105F5C6
:102C10006B7000EB44100176E2E00398C0F3814052
:102C2000032899D1039820F0005000F10050039040
:102C300005F1900050F8240003990160012105F28C
:102C40009B300155CCE0FFE70598C0F34000002819
:102C500051D005F1900050F82400C068019001980F
:102C600020F00200019005F1900050F82400019935
:102C7000C16005F56370005D012804D1012105F2F2
:102C80009B3001552DE005F56370005D052804D1EA
:102C9000042105F29B30015523E005F56370005DCA
:102CA000062804D005F56370005D082808D10021CE
:102CB00005F5457040F8241003218730015510E0D8
:102CC0000398C0F3814003280BD105F56B7000EB2E
:102CD0004410007E80F0010105F56B7000EB44109C
:102CE000017600200190019820F00200801C0190E4
:102CF0000198B06074E00598C0F3C01040B305F1CE
:102D0000900050F82400C0680190019820F0020063
:102D1000801C019005F1900050F824000199C160D9
:102D200005F5457050F82410491C40F82410062180
:102D300078300155E1B22846FFF709FC00200190E8
:102D4000019820F08000803001900198B06047E049
:102D50000598C0F30010E8B30398C0F3814003283E
:102D600015D105F1900050F82400C0680190019839
:102D700020F00200801C019005F1900050F8240022
:102D80000199C160E1B22846FFF7E1FB18E0039822
:102D9000C0F3814020B10398C0F3814002280FD1D5
:102DA000039820F0004000F100400390039820F0C9
:102DB0008040039005F1900050F8240003990160D1
:102DC000032105F56370015500200190019820F062
:102DD000100000E004E0103001900198B06000BFE6
:102DE000012006B070BD7FB505460C4605F1900088
:102DF00050F82460B0680390F0680290DDE902109A
:102E00000840039005F1900050F8240000680190FC
:102E10000398C0F38000D0B100200090009820F00B
:102E20000400001D00900098B06005F1900050F87B
:102E30002400C0680090009820F00200801C0090E0
:102E400005F1900050F824000099C160B0E10398AA
:102E5000C0F3401048B100200090009820F02000FE
:102E6000203000900098B060A2E10398C0F34020A9
:102E7000F8B105F1900050F82400C0680090009867
:102E800020F00200801C009005F1900050F8240012
:102E90000099C160E1B22846FFF759FB002000907D
:102EA000009820F4007000F5007000900098B06069
:102EB0007EE10398C0F3000038B3002105F54570AA
:102EC00040F8241005F1900050F82400C0680090EC
:102ED000009820F00200801C009005F1900050F84E
:102EE00024000099C160E1B22846FFF730FB0020C2
:102EF0000090009820F00100401C00900098B06005
:102F0000012105F56370015552E10398C0F3C0003B
:102F100010B300200090009820F0080008300090C6
:102F20000098B06005F1900050F82400C06800904F
:102F3000009820F00200801C009005F1900050F8ED
:102F400024000099C160E1B22846FFF700FB05218B
:102F500005F5637001552BE10398C0F3001038B3F9
:102F6000002105F5457040F8241005F1900050F857
:102F70002400C0680090009820F00200801C00909F
:102F800005F1900050F824000099C160E1B2284694
:102F9000FFF7DDFA00200090009820F010001030BC
:102FA00000900098B060032105F563700155FFE0C3
:102FB0000398C0F3C01040B305F1900050F824000E
:102FC000C0680090009820F00200801C009005F17D
:102FD000900050F824000099C160E1B22846FFF744
:102FE000B6FA05F5457050F82410491C40F8241035
:102FF00006217830015500200090009820F08000D4
:10300000803000900098B060D2E00398C0F3801048
:1030100038B3002105F5457040F8241005F1900003
:1030200050F82400C0680090009820F00200801C36
:10303000009005F1900050F824000099C160E1B2C1
:103040002846FFF784FA00200090009820F0400006
:10305000403000900098B060042105F56370015580
:10306000A6E00398C0F3802060B305F1900050F80B
:103070002400C0680090009820F00200801C00909E
:1030800005F1900050F824000099C160E1B2284693
:10309000FFF75DFA00200090009820F0100010303B
:1030A00000900098B060082105F56370015500207C
:1030B0000090009820F4806000F5806000900098F7
:1030C000B06075E00398C0F34000002870D005F1AF
:1030D000900050F82400C0680090009820F0020092
:1030E000009005F1900050F824000099C16005F5AA
:1030F0006370005D012815D1012105F29B30015557
:103100000198C0F38140022848D105F56B7000EBAF
:103110004410407E80F0010105F56B7000EB441017
:1031200041763BE005F56370005D032804D1022180
:1031300005F29B30015531E005F56370005D042810
:103140000FD105F56B7000EB44100079012803D115
:10315000E1B22846FFF7E6F9022105F29B3001555E
:103160001CE005F56370005D052804D1042105F21B
:103170009B30015512E005F56370005D06280DD106
:1031800005F5457050F82400032807D1032105F206
:103190009B3001550021873840F824100020009012
:1031A000009820F00200801C00900098B06000BFE2
:1031B000012004B070BD7FB50446E068C06A00908D
:1031C0000198C0F3C30104F56B7000EB4110006976
:1031D000C01CC0F38F0671E000988004050C0198B4
:1031E000C0F3C30104F56B7000EB41100069A84205
:1031F00015D20198C0F3C30104F56B7000EB4110C8
:10320000006985B200200390039820F02000203050
:103210000390E068806903998843E16888610198B8
:10322000C0F3C30104F56B7000EB41100069C01CD2
:10323000C0F38F060198C0F3C302C0F3C30304F5C3
:103240006B7000EB43102B46C168204600F022FA59
:103250000198C0F3C30104F56B7000EB4110C06826
:1032600041190198C0F3C30204F56B7000EB4210E2
:10327000C1600198C0F3C30104F56B7000EB41100D
:103280000069411B0198C0F3C30204F56B7000EBA9
:10329000421001610198C0F3C30104F56B7000EBAB
:1032A0004110406941190198C0F3C30204F56B70E5
:1032B00000EB42104161E068C06A0090009880B263
:1032C000B0420ADD0198C0F3C30104F56B7000EB56
:1032D0004110006900287FF47FAF012004B070BD69
:1032E000FEB50446002600250020009002900190C3
:1032F000D4F8CC0000680290D4F8CC0000680190AB
:10330000019820F004000190019820F00200019043
:10331000019820F008000190019820F02000019011
:103320000298C0F3400058B1019820F00200801CC0
:1033300001903248006841682046884745F0010501
:103340000298C0F3C000002842D0019820F0080085
:10335000083001900298C0F38000012838D1274836
:1033600000684168204688470298C0F3414002281F
:1033700004D00298C0F34140012828D16069006858
:1033800000900298C0F34140022811D141F27071BF
:10339000606941600098C0F30100022818D0207ACB
:1033A000022803D102212046FFF7E4F901260FE0AD
:1033B0004BF68031606941600098C0F3010001283C
:1033C00006D001212046FFF7D5F9012600E00126AD
:1033D0000298C0F3401030B1019820F02000203056
:1033E000019045F0010516B12046FFF7F5F9019966
:1033F000D4F8CC0001602846FEBD00006400002027
:10340000FEB504466069006900900198C0F3C301ED
:1034100004F56B7000EB41100069C01CC0F38F060F
:1034200072E000988004050C0198C0F3C30104F514
:103430006B7000EB41100069A84216D20198C0F3EE
:10344000C30104F56B7000EB4110006985B20020E8
:103450000290029820F0806000F180600290E068A5
:10346000806902998843E16888610198C0F3C301CB
:1034700004F56B7000EB41100069C01CC0F38F06AF
:103480000198C0F3C302C0F3C30304F56B7000EBF3
:1034900043102B46C168204600F0FCF80198C0F3A9
:1034A000C30104F56B7000EB4110C068411901982D
:1034B000C0F3C30204F56B7000EB4210C1600198C9
:1034C000C0F3C30104F56B7000EB41100069411BB0
:1034D0000198C0F3C30204F56B7000EB4210016168
:1034E0000198C0F3C30104F56B7000EB4110406913
:1034F00041190198C0F3C30204F56B7000EB421050
:103500004161606900690090009880B2B0420ADDB4
:103510000198C0F3C30104F56B7000EB4110006922
:1035200000287FF47EAF0120FEBD7FB50446002554
:1035300000200290029820F0100010300290E06805
:10354000806902998843E1688861E068006A0390B5
:103550000398C0F3030504F1900050F825000068BB
:1035600000900398C0F34340022806D0032869D096
:10357000052868D0072864D166E00398C0F30A10D4
:1035800000285DDD04F56B7000EB4510C068002875
:1035900056D00398C0F30A1204F56B7000EB451087
:1035A000C1682046FFF708F90398C0F3030104F54A
:1035B0006B7000EB4110C0680399C1F30A1101441C
:1035C0000398C0F3030204F56B7000EB4210C16076
:1035D0000398C0F3030104F56B7000EB41104069E0
:1035E0000399C1F30A1101440398C0F3030204F5DF
:1035F0006B7000EB4210416104F56B7000EB4510FD
:10360000466904F5547040F8256004F1900050F8C4
:103610002500006901900198C0F3C94000280FDD22
:10362000009820F0004000F100400090009820F049
:103630008040009004F1900050F82500009901604E
:1036400003E000BF00BF00BF00BF00BF029820F032
:10365000100010300290E068806902990843E16828
:103660008861012004B070BD38B504460020009088
:1036700007480068016820468847009820F0080045
:10368000083000900098E1684861012038BD0000D2
:103690006400002030B5C47800256CB900EB8200CE
:1036A0000024DB1C9B08D0F8D00003E051F8042B69
:1036B0000260641C9C42F9D3284630BDFEE700003E
:1036C0000FB4054B10B503A9044A029800F018F88E
:1036D00010BC5DF814FB0000793B0008500000208E
:1036E00002E008C8121F08C1002AFAD170477047CB
:1036F000002001E001C1121F002AFBD17047000029
:103700002DE9FF4F8DB005460F460026E9E125283B
:1037100079D100246D1CF74AA246A14601212B78DD
:10372000203B01FA03F0104202D004436D1CF6E77F
:1037300028782A2810D06FF02F022878A0F13001C5
:10374000092915D80AEB8A0102EB410144F0020471
:1037500000EB010A6D1CF0E757F804ABBAF1000F5B
:1037600003DA44F40054CAF1000A44F002046D1C68
:1037700028782E2817D115F8010F44F004042A28C0
:103780000ED06FF02F022878A0F1300109290AD855
:1037900009EB890102EB410100EB01096D1CF2E725
:1037A00057F8049B6D1C28786C280FD006DC4C2839
:1037B00017D068280DD06A2814D104E0742810D0DE
:1037C0007A280FD10DE044F400140AE044F4801488
:1037D00001E044F440146978814202D16D1C04F583
:1037E00080146D1C95F800C0BCF16E0F2AD012DC5D
:1037F000BCF1630F3CD007DCBCF1000F76D0BCF10C
:10380000580F19D1A7E018E0BCF1640F6FD0BCF1DC
:10381000690F11D16BE0BCF1730F32D006DCBCF143
:103820006F0F71D0BCF1700F06D196E0BCF1750F2F
:103830006BD0BCF1780F69D06046DDE90F1290477C
:10384000761C4DE1C4F30250022806D003280AD0AA
:10385000042801CF0AD0066042E101CF4FEAE671A9
:10386000C0E900613CE101CF068039E1067037E133
:1038700001CF8DF8000000208DF80100EB460120FB
:1038800003E057F804BB4FF0FF3061074FF0000131
:1038900002D40DE008F10101884649450FDA804560
:1038A000F8DB1BF808100029F4D108E008F1010149
:1038B00088468142FADB1BF808100029F6D1DDE9C1
:1038C0000F23AAEB08008146214600F03CF9304462
:1038D00000EB080604E0DDE90F121BF8010B90472E
:1038E000B8F10108F7D221464846F4E0FDE00A218C
:1038F000C4F302524FF0000B0891022A07D001CF07
:10390000C117032A09D00AE030E022E023E0FF1DBE
:1039100027F00707F7E8020105E000B2C117042A03
:1039200001D140B2C117002906DA0023D0EB030011
:1039300063EB01012D2202E0220504D52B228DF834
:103940002420012203E0E20701D02022F7E790467D
:103950004EE00A210BE0102109E010214FF0000B8E
:1039600044F004044FF00809089103E008214FF0E7
:10397000000B0891C4F30252022A04D001CF0021A7
:10398000032A06D007E0FF1D27F00707F7E802012A
:1039900005E080B20021042A01D1C0B200214FF01D
:1039A0000008220724D5BCF1700F29D0089B83F0B2
:1039B000100353EA0B0309D150EA010206D030226A
:1039C0008DF824208DF825C002229046089B83F0B4
:1039D000080353EA0B030BD150EA010201D162073D
:1039E00006D530228DF824204FF00108A9F10109F5
:1039F000BCF1580F09D040A20B9208AA0A9211E01C
:103A000040228DF824200122DFE740A2F4E75B4644
:103A1000089AFCF7FBFB0B9B9B5C0A9AA2F1010244
:103A20000A92137050EA0102F1D10A98ADEB00003E
:103A300000F1200B600702D524F4803401E04FF040
:103A40000109D94502DDA9EB0B0000E0002000EBE5
:103A50000B0141440890AAEB01000B90E00306D44F
:103A6000DDE90F2321460B9800F06DF806444FF076
:103A700000090DF1240A07E0DDE90F121AF8090028
:103A80009047761C09F10109C145F5DBE0030CD52F
:103A9000DDE90F2321460B9800F055F8064404E0B9
:103AA000DDE90F1230209047761C0899481E0890D7
:103AB0000029F5DC08E00A980A990078491C0A9167
:103AC000DDE90F129047761CBBF10001ABF1010B51
:103AD000F1DC0B982146DDE90F2300F021F80644C4
:103AE0006D1C287800287FF412AE11B03046BDE876
:103AF000F08F000009280100303132333435363779
:103B00003839616263646566000000003031323329
:103B100034353637383941424344454600000000C9
:103B20002DE9F0410446002517461E46880405D4B9
:103B300006E039462020B04705F10105641EF8D59E
:103B40002846BDE8F0812DE9F04104460025904665
:103B50001E46C80301D5302700E02027880405D57C
:103B600006E041463846B04705F10105641EF8D528
:103B70002846BDE8F081000070B5074D0446C1B28B
:103B80002846FCF773FF40212846FCF7F3FE002887
:103B9000F9D0204670BD00000010014092B0FCF743
:103BA00091FE1A481B4A0090194B0121A2F2AC5019
:103BB000FDF7ACFE18A11AA0CDE900011CA31DA2BF
:103BC00023A126A0FDF71AF902AE1249A1F2AC50CA
:103BD000FDF7F6FFFDF7F4F90028F6D1402202A91F
:103BE0002048FDF7F3F90500EFD01E48FDF7A8F8CF
:103BF000002404E0315D1CA0FFF762FD641CAC42B0
:103C0000F8D31AA0FFF75CFDDFE7000008000020F2
:103C10006C00002064060020313233343536370022
:103C20007777772E6163746E6F76612E636F6D00A8
:103C3000312E300048656C6C6F41444B20666F72CA
:103C400020666F722053544D33324634000000001A
:103C500048656C6C6F41444B000000006163746EFA
:103C60006F766100B8000020255820000D0A000082
:103C70003E204465766963652041747461636865BC
:103C800064200D0A003E204465766963652044691E
:103C900073636F6E6E65637465640D0A003E204544
:103CA0006E756D65726174696F6E20636F6D706C97
:103CB00065746564200D0A003E20486967682073BA
:103CC0007065656420646576696365206465746504
:103CD000637465640D0A003E2046756C6C20737039
:103CE00065656420646576696365206465746563F1
:103CF0007465640D0A003E204C6F77207370656513
:103D000064206465766963652064657465637465C1
:103D1000640D0A003E20446576696365206661751E
:103D20006C74200D0A003E204D6173732073746F14
:103D3000726167652064657669636520636F6E6E86
:103D400065637465640D0A003E204849442064653B
:103D50007669636520636F6E6E65637465640D0AD2
:103D6000003E20554E5245434F564552454420454E
:103D700052524F522053544154450D0A0000000046
:103D8000484F53545F434C4153535F52455155453F
:103D90005354207374617465203A20636F6E746F9E
:103DA0006C207265717565737473206973206F6B15
:103DB00020616E6420686F737420636C617373207C
:103DC000697320656E7465720D0A000000040008B6
:103DD0000A000B00070007000000040004000000B8
:103DE000040000000100002000800100002000808D
:103DF00000000200060000000D000F000600280071
:103E00002800400000010002800000004000000087
:103E1000400000000001000004000000010000005C
:103E20000400000040000000483E000800000020A0
:103E3000B8000000E0360008003F0008B80000208D
:103E4000480E0000F03600080000000000000000EE
:103E5000F51F00082D1F00083D1F0008CD20000899
:103E6000511F000895200008891F0008B91F00088D
:103E7000391F0008A11E000879200008B52000089D
:103E8000E5200008E11F000819210008751E000840
:103E9000651F000805210008000000000000000068
:103EA000411E0008C7100008EB1100085800002050
:103EB00000000000E90E00087D0E0008750A0008E9
:103EC0004D0D00080000000001020304010203047C
:103ED00006070809004800400008024000080240A8
:103EE00000000000001802400018024000200240BC
:103EF0000008024000000240000802400018024092
:040000050800018965
:00000001FF
