:020000040800F2
:10000000081400209D010008A30700088F060008BF
:10001000A107000893030008CD400008000000007D
:10002000000000000000000000000000650A000859
:1000300095030008000000003D080008B501000815
:10004000B7010008B7010008B7010008B7010008B0
:10005000B7010008B7010008B701000899030008BC
:10006000B7010008B7010008B7010008B701000890
:10007000B7010008B7010008B7010008B701000880
:10008000B7010008B7010008B7010008B701000870
:10009000B7010008B7010008B7010008B701000860
:1000A000B7010008B7010008B7010008B701000850
:1000B000890B0008B7010008B7010008B701000864
:1000C000B7010008B7010008B7010008B701000830
:1000D000B7010008B7010008B7010008B701000820
:1000E000B7010008B7010008B7010008B701000810
:1000F000B7010008B7010008B7010008B701000800
:10010000B7010008B7010008B7010008B7010008EF
:10011000B7010008B7010008B7010008B7010008DF
:10012000B7010008B7010008B7010008B7010008CF
:10013000B7010008B7010008B7010008B7010008BF
:10014000B7010008B7010008B7010008310800082E
:10015000B7010008B7010008B7010008B70100089F
:10016000B7010008B7010008B7010008B70100088F
:10017000B7010008B7010008B7010008B70100087F
:10018000B7010008B7010008DFF80CD000F088F8CC
:1001900000480047255300080814002006488047FF
:1001A00006480047FEE7FEE7FEE7FEE7FEE7FEE75C
:1001B000FEE7FEE7FEE7FEE72D0B000889010008D9
:1001C00040EA01039B0703D009E008C9121F08C0D9
:1001D000042AFAD203E011F8013B00F8013B521E59
:1001E000F9D27047034600E0401C0278002AFBD198
:1001F00011F8012B00F8012B002AF9D1184670479D
:1002000030B50EE003460A4601E05B1C521C1C7828
:100210001578AC4201D1002CF7D115F0FF0F04D0B6
:10022000401C0278002AEDD1002030BD034611F8B1
:10023000012B00F8012B002AF9D1184670472DE94F
:10024000F05F0546002092469B468846064681465A
:1002500040241BE0284641464746224600F041F82C
:1002600052465B46801A994110D3104619462246E1
:1002700000F028F82D1A67EB01084F4622460120AE
:10028000002100F01FF817EB00094E41201EA4F1D9
:100290000104DFDC484631462A464346BDE8F09F6C
:1002A000064C074D06E0E06840F0010394E80700C3
:1002B00098471034AC42F6D3FFF76AFFE0580008C5
:1002C00000590008202A04DB203A00FA02F100203D
:1002D00070479140C2F1200320FA03F31943904084
:1002E0007047202A04DB203A21FA02F000217047EF
:1002F00021FA02F3D040C2F120029140084319468E
:100300007047000010B5074C2060084600F00CF85C
:1003100020680028FCD1BDE8104000214FF080404B
:1003200000F041BC000000203EB504464FF080457F
:100330000021284600F037FC00220121284600F069
:1003400047FC022C02D0012C02D004E00B2001E07B
:1003500042F6DF6001900520ADF800000020ADF806
:100360000800ADF802006946284600F039FC01217A
:10037000284600F015FC0121284600F007FC012268
:100380001146284600F024FC0121284600F00BFC11
:100390003EBDFEE77047000010B5022000F016F8E1
:1003A000002809D00548D0F8800040698047BDE8A2
:1003B0001040022000F004B810BD0000900600209C
:1003C0000149086070470000143C0140064A01469C
:1003D00000201268044B0A4014331B680B4202D001
:1003E000002A00D001207047003C014030B51B4975
:1003F0008379026863B30B6893430B600A1D13682B
:100400000468A343136002790A4413680468234311
:100410001360124A083213680468A3431360131D63
:100420001C680568AC431C6090F805C0BCF1100F57
:1004300005D061440A68006802430A6030BD116853
:10044000046821431160196800680143196030BDD8
:100450000079084401689143016030BD003C0140CF
:10046000F0B50E4693B001460CA804F0E7FC274F08
:10047000040042D046E069460CA804F006FD0400E2
:1004800040D19DF8090000283CD02E2835D00DF130
:100490000905294607A8FFF7C9FE7878401CC0B2B5
:1004A0007870092811D90020787019A003F010FE87
:1004B00002E000BF00F0D4FB1C4800F0D6F820B1E9
:1004C000022000F06DFA0128F4D09DF8080018A170
:1004D00000F03F0007A8FFF785FE07A915A003F06D
:1004E000F7FD9DF8080000F03F00102805D1012E0F
:1004F00003D102212846FFF7B3FF0C4800F0B5F8FE
:100500000028B8D113B02046F0BD00000400002040
:100510005072657373204B657920746F20636F6E22
:1005200074696E75652E2E2E0D0A0000E400002001
:100530000A00000025730D0A00000000F0B500223B
:1005400001234FF0030C00BF0D6803FA02F42540AD
:10055000A5422DD1066854000CFA04F5AE4306609E
:100560000E790768A6403E4306600E79012E01D041
:10057000022E12D18668AE4386604D798668A5400A
:1005800035438560456803FA02F6B5434560456822
:100590008E799640B6B235434560C56856000CFA70
:1005A00006F7BD43C560CD79A540C4682543C56045
:1005B000521C102AC8D3F0BD4B07DB0E9A40C90865
:1005C00010B500EB8100016A0F249C40A143016239
:1005D000016A1143016210BD0246002012690A42FD
:1005E00000D0012070474183704701837047406904
:1005F000806880B27047D0F8CC000068C0F34140FA
:100600007047084490F89B03704700EB8100D0F8D6
:100610005003704710B5044600200246C4F810038A
:1006200004EB8003C3F81423C3F85023231883F882
:100630008C23401CC0B20F28F2D30820A4F8B203C8
:10064000204602F0E7FD204602F0E2FB204602F0E1
:100650001FFB0121204602F03FFE204602F058FB1E
:10066000204602F0FBFB002010BDD0F810037047BD
:1006700010B502F0B9FD002010BD0022431883F828
:100680009B2300EB4113C3F8C02302F0FABCFEE742
:1006900030B58DB00146012506A804F0CFFBA0BB04
:1006A0000DF10904694606A804F0EFFB68BB9DF84C
:1006B000090050B32E28F5D09DF80800C006F1D4EB
:1006C0001BA12046FFF79CFD28B91AA12046FFF781
:1006D00097FD0028E6D001222146174804F00AFBC6
:1006E000642002F0CFFA002502E000BF00F0B8FA63
:1006F0001248FFF7BAFF20B1022000F051F901289B
:10070000F4D00D4804F0D8FACCE7FFE70CA003F0D2
:10071000DFFC11A003F0DCFC1748016817A003F010
:10072000D7FC1E49012008700DB0284630BD0000DE
:10073000626D7000424D500044090020E40000202A
:1007400020555342204F5447204653204D534320B9
:10075000486F73740D0A000020202020205553425A
:1007600020486F7374204C6962726172792076320E
:100770002E312E300D0A0000680D00203E20446905
:10078000736B206361706163697479203A2025641A
:100790002042797465730D0A0000000004000020F7
:1007A000FEE7704770B50F21C478027801234FF03F
:1007B000E026E4B1124C246804F4E064C4F5E0647B
:1007C000C4F30724C4F10405E1404478AC408578C3
:1007D0000D4025430B4C29011155007800F01F01F5
:1007E0008B40400906EB8000C0F8003170BD02F07C
:1007F0001F008340500906EB8000C0F8803170BDB7
:100800000CED00E000E400E0024908430249086002
:10081000704700000000FA050CED00E0024A1140AC
:10082000014302480160704780FFFF1F08ED00E0B0
:10083000014801F05DBC0000E400002070470000AA
:10084000044A0029116801D0014300E0814311608E
:100850007047000030380240044A0029116801D076
:10086000014300E0814311607047000034380240CA
:10087000044A0029116801D0014300E0814311605E
:100880007047000040380240044A0029116801D036
:10089000014300E08143116070470000443802408A
:1008A00030B5224B1968224A11F00C0104D0214DB9
:1008B000042903D0082903D002601DE005601BE075
:1008C0001A49091F0C68C4F3805C0C68BCF1000F66
:1008D00004F03F0402D0B5FBF4F201E0B2FBF4F205
:1008E0000C680968C4F388146243C1F30141491CD0
:1008F0004900B2FBF1F1016019680F4A01F0F00103
:100900000909545C0168E14041601C6804F4E0544A
:10091000A40A145D21FA04F484601B6803F46043A4
:100920005B0BD25CD140C16030BD00000838024092
:100930000024F40040787D01A80000201CB5044686
:100940000E48012150F82400FFF77AFF0B480021E0
:100950000A3830F81400009001208DF804008DF85A
:1009600006108DF8070002208DF80500044869463E
:1009700050F82400FFF7E2FD1CBD0000C458000839
:10098000C8000020044951F820104A69034B33F88D
:10099000100042404A617047C8000020BA58000861
:1009A0000349044A31F8101052F82000FFF714BE32
:1009B0009C580008D800002070B5044627480D4612
:1009C00086B050F824000121FFF73AFF0121880387
:1009D000FFF75AFF214800268DF8106038388DF84F
:1009E000136030F8140003901D4803A950F8240048
:1009F000FFF7A4FD012D2ED11848263830F8140039
:100A0000C1B216482C3830F81400C0B200F02CF8EF
:100A10001248323830F8140000908DF804600CB1A0
:100A20000C2000E008208DF8050001258DF8065007
:100A30006846FFF7DBFC0948203830F814008DF8D1
:100A400008000F208DF809008DF80A008DF80B5072
:100A500002A8FFF7A7FE06B070BD0000D45800083A
:100A6000D80000207047000010B58A0721F0030469
:100A70000649130F21440F220C689A4094430C60DE
:100A80000A68984002430A6010BD0000083801401F
:100A9000224900200A6842F480320A604FF4A063C1
:100AA0000A6800F1010012F4003F01D19842F7D129
:100AB0000868800331D519484030026842F08052FE
:100AC00002601748026842F480420260134808300E
:100AD00002680260026842F400420260026842F466
:100AE000A0520260031F0F4A1A600A6842F0807227
:100AF0000A600A689201FCD50B4A40F20561116058
:100B0000016821F003010160016841F00201016008
:100B10000168C1F381010229FAD17047003802400F
:100B20000070004019544007003C0240124810B5C4
:100B3000016841F4700101601048016841F0010151
:100B400001600E4A00210832116002680C4B1A4005
:100B50000260031D0B4A1A60026822F480220260C0
:100B600006480C300160FFF793FF03494FF0006027
:100B70008039086010BD000088ED00E000380240B8
:100B8000FFFFF6FE1030002402F060B80029018853
:100B900002D041F0800101E021F080010180704726
:100BA000C943018270470029018802D041F0010148
:100BB00001E021F0010101807047038A0022808951
:100BC0000B4200EA010001D000B10122104670473B
:100BD000002A828901D00A4300E08A43828170475B
:100BE00030B50288174B184C98420DD0A0420BD05C
:100BF000B0F1804F08D0154DA84205D0144DA84241
:100C000002D0144DA84204D122F0700C4A8842EA66
:100C10000C02114DA84207D0104DA84204D022F476
:100C2000407C0A8942EA0C0202804A68C2620A8851
:100C30000285984201D0A04201D1897A0186012122
:100C4000818230BD000001400004014000040040EA
:100C500000080040000C004000100040001400405C
:100C600010B50B4C6068401C6060B0F1011F0DD1E5
:100C70000020FFF787FE0120FFF784FE0220FFF728
:100C800081FE0320FFF77EFE0020606010BD0000A3
:100C9000040000200029818902D041F4005101E0C4
:100CA00021F400518181704770B5012186B008465A
:100CB000FFF7C6FD01210846FFF7C2FD0121102004
:100CC000FFF7E2FD234E072209213046FFF774FCAF
:100CD00007220A213046FFF76FFC02218DF804102D
:100CE00000248DF8064070158DF805100090012540
:100CF0008DF8075069463046FFF720FCA8020090A7
:100D00008DF806508DF8074069463046FFF716FC0F
:100D10004FF4E130ADF80C400290ADF80E40ADF864
:100D20001040ADF814400C200B4CADF8120002A995
:100D3000204600F033F8012240F22551204600F011
:100D400014F801212046FFF7A5FF00F083F806B054
:100D500070BD00000000024000100140024600206B
:100D600012880A4200D001207047C1F3421301F0FB
:100D70001F0C012101FA0CF1012B07D0022B07D027
:100D80001430002A026805D00A4304E00C30F8E76A
:100D90001030F6E78A430260704700007FB50446D2
:100DA000008A0D4620F44051E88808432082A0893B
:100DB00041F20C618843A9882A8911436A89024358
:100DC0001143A181A08A20F44071A8890843A08220
:100DD0006846FFF765FD1D48844202D01C488442E6
:100DE00001D1039800E00298A1890904002900EBD1
:100DF000C00101EB0010296802DA4FEA410101E06D
:100E00004FEA8101B0FBF1F06422B0FBF2F14FEA4E
:100E100001114FEA11136FF018056B4300EB8300CB
:100E2000A3891D044FF0320306D503EBC000B0FBCD
:100E3000F2F000F0070005E003EB0010B0FBF2F069
:100E400000F00F00084320817FBD0000001001402A
:100E50000014014008B525208DF8000001208DF810
:100E6000010000218DF802108DF803006846FFF79D
:100E700099FC08BDC1F308018180704710B50022BC
:100E80004FF6FF7300EB4204B4F88C45240409D4F8
:100E90009A4205D000EB420041F40041A0F88C15C5
:100EA000D0B210BD521CD2B2082AEBD31A46F7E7D3
:100EB00010B58C46194600EB4114012384F8AE337B
:100EC000C4E9EEC294F8C42302B1022284F8B42328
:100ED000FFF7D3FB002010BD10B58C46194600EB80
:100EE0004114002384F8AE33C4E9EEC294F8C5235C
:100EF00032B1022284F8B423FFF7BFFB002010BDFB
:100F000084F8B433F8E730B402240C7501244C752E
:100F10000024CC820A8315064C8300EB431202D5D1
:100F200082F8C44301E082F8C543002330BC1A466E
:100F300000F017B80121C0F810130020704710B559
:100F40008C46194600EB411404F56B740123A37021
:100F50004FF002032372C4E903C2FFF78EFB0020A7
:100F600010BD30B50120CD780446012D0BD0022DE7
:100F700008D10A7F0D2A10D00B2A12D00C2A01D1D9
:100F8000CC70032030BD0D784D7007250D708A6040
:100F90008B810C770222CA7030BDCC70002008779C
:100FA00030BDCC70022030BD10B58C46194600EB28
:100FB0004114002384F8AE33C4E9EEC21AB194F8A8
:100FC000C5235AB102E0012284F8C523022284F825
:100FD000B42300BFFFF751FB002010BD84F8B433E9
:100FE000F8E78C46114600EB411310B503F56B731F
:100FF00000229A704FF003021A724FF00802C3E900
:1010000003C2FFF73AFBC0B210BD0221002200EB81
:101010004103491CC9B2A3F88C250829F7D3002045
:10102000704770B505460020087048700C468870FF
:101030000121E17021774022A27184F8200084F818
:1010400021102179284600F021F86179284600F026
:101050001DF8002070BD0021C0F81013084670472D
:1010600070B50A25044605290AD0042908D00629A6
:101070000BD12570D0F880000068BDE870400047B3
:10108000D4F88000406C8047257070BD082908D2D4
:1010900000EB410101F28C50B1F88C15C1F30E0147
:1010A00001800020704730B442F08002DDE9024C3C
:1010B0000A7506224A750322CB82B2EB132F02D1A6
:1010C00040F2094200E000220A83A1F81AC0224639
:1010D00030BC6346FFF745BF0A8803781A440A808C
:1010E00001780844704700002DE9FC47154600F5DB
:1010F0008878CDE90085002407460E464FF400733A
:101100002246FFF7D0FF5FEA000907D013E0391944
:1011100091F810110155641CA4B200E00748AC42DC
:10112000F5D3434606F1500206F13E0106F13400C4
:10113000009501F05BF84846BDE8FC87680B00208D
:101140007CB50446154600F58870CDE900050E46CD
:101150004FF4807300222046FFF7A5FF002830D10E
:1011600004F58874082D217806F8221F61787170C3
:10117000A178E27801EB02217180217931716179E6
:101180007171A179B171E179A4F58874F17118D9FF
:1011900004F58C742178627801EB02213181A17809
:1011A000E27801EB022171812179627901EB022160
:1011B000B181A179B173E179F173217A3174617AE6
:1011C00071747CBD7CB51E46069D00F5887442F4A2
:1011D00040730022CDE90045FFF765FF010014D1FF
:1011E0006078032811D12078821EAA4200DC1546BF
:1011F000A41CAAB2002004E0235C801C06F8013B7A
:1012000080B29042F8D30020307008467CBD0000C8
:101210002DE9F05F00260C468E748046097F0B276F
:1012200009250120DFF8B8914FF0080B4FF0050AAF
:101230000C2917D2DFE801F0D1060E39415A677B3D
:1012400084A3B4C4627904F114014046FFF7C9FED7
:101250000220BBE061794046FFF7D3F9012802D0B4
:1012600003281ED0B9E0207D618B00F0800051B1D1
:1012700041F28832A9F80020802802D084F81CA00E
:1012800008E0032005E03222A9F80020802806D0DB
:10129000072020774046FFF7AAF920829DE02577B6
:1012A000F8E7277784F812A097E02379A2894046CF
:1012B000A168FFF744FE042088E021794046FFF74B
:1012C000A0F901280DD004280DD0032876D040467F
:1012D000FFF78DF9218A411AB9F8000081426DD8D3
:1012E0007BE02577F3E76078207076E0617908EBA2
:1012F000411181F8C5036379A2894046A168FFF7CF
:1013000053FE062062E061794046FFF77AF9012832
:1013100004D0042804D0022806D049E0072055E074
:10132000607820700C2051E084F81CA055E0002269
:10133000237911464046FFF702FE84F81CB04CE0CA
:1013400021794046FFF75DF9054601280DD0032DB0
:1013500034D04046FFF74BF9218A411AB9F8000012
:1013600081422BD8042D04D037E0607820700D2006
:101370002CE0607820700420A07403262DE06079B2
:10138000002208EB401090F8C51381F0010180F8AD
:10139000C513637911464046FFF706FE0A2015E0A3
:1013A00061794046FFF72DF90128DED0022803D0ED
:1013B000032803D011E001E025770EE027770CE049
:1013C000A17B491CC9B2A173022901D8207704E08E
:1013D00084F812B06078207002263046BDE8F09F95
:1013E0006C0000202DE9F043804601258878FF2617
:1013F00093B00C462F464FF000090A2863D2DFE86D
:1014000000F0052739636F859EB9CFDC082221469D
:101410004046FFF795FE002855D16CA002F058FE1B
:1014200094F82900A0714046FFF722F9A770A0792F
:101430000023CDE900904E4661791A46404600F0FF
:101440003BFEA0790023CDE9006021791A4637E000
:10145000122221464046FFF773FE0028DCD165A02A
:1014600002F036FED4F88000C16904F122008847FA
:101470000220A0E001222146404601F083F8002826
:10148000CAD162A002F024FE022001F0FBFB04F1AD
:1014900004042777E06F006A8047032004F8020CF9
:1014A000CDF80090CDF804904E46227F217800239D
:1014B000404600F001FE00960196227F61780023ED
:1014C000404600F0F9FD7CE0092221464046FFF746
:1014D0000BFE002875D151A002F0FAFD04206AE04D
:1014E000E28E21464046FFF7FFFD002869D155A056
:1014F00002F0EEFDD4F8800004F1500204F13E0148
:10150000436A04F134009847052054E094F8300011
:10151000062780B153A002F0DBFD009694F830203E
:1015200002AB21464046FFF74DFE002849D1D4F8D2
:101530008000816A15E0D4F88000816A16E094F892
:10154000312007277AB102AB214640460096FFF7CB
:1015500039FE002835D14FA002F0BAFDD4F8800042
:10156000C16A02A803E0D4F88000C16A54A0884789
:10157000A77026E094F8322008276AB102AB214612
:1015800040460096FFF71EFED8B94EA002F0A0FD1F
:10159000D4F88000016BE4E7D4F88000016BE5E744
:1015A00094F839202146404600F0F8FF48B951A090
:1015B00002F08EFD0920A07003E054A002F088FD27
:1015C000002513B02846BDE8F0830000476574206D
:1015D000446576696365204465736320666F722095
:1015E0006F6E6C7920317374203820627974657362
:1015F0000D0A00006765742066756C6C2064657662
:1016000069636520646573630D0A00007365742067
:10161000616464726573730D0A000000676574206D
:101620007374616E6461726420636F6E666967755E
:10163000726174696F6E2064657363726970746F30
:10164000720D0A006765742046554C4C20636F6E1E
:101650006669672064657363726970746F720D0ADE
:1016600000000000436865636B2074686174204D5E
:10167000616E756661637475726572205374726908
:101680006E6720697320617661696C61626C650DBB
:101690000A000000436865636B2074686174205021
:1016A000726F6475637420737472696E67206973F6
:1016B00020617661696C61626C650D0A0000000052
:1016C0004E2F4100436865636B207468617420533A
:1016D000657269616C206E756D62657220737472DB
:1016E000696E6720697320617661696C61626C65FF
:1016F0000D0A000073657420636F6E66696775720A
:101700006174696F6E200D0A0000000075736572C8
:101710002063616C6C6261636B20666F7220656E22
:10172000756D65726174696F6E20646F6E65200DF2
:101730000A0000002DE9F04107462DED028B0E4610
:1017400014461D469DED088A01F03AFA21463846B6
:10175000FFF767FCE56784ED208A31463846FEF7DF
:1017600059FFD4F8800000688047BDEC028B3846F2
:10177000BDE8F04101F010BA10B584460A4C0120D2
:1017800012B1012A08D102E02378E27801E06378FF
:10179000A2786046FFF7B7FB044A1169491C116142
:1017A000042900D9042010BDB80F002070000020CB
:1017B0000149002008707047A80F002070B5054649
:1017C0000124FEF752FFD8B1104801782846FEF7F1
:1017D0001CFF0D2813D10E480E4A016891420ED10C
:1017E000A0F1200241685268914209D1007B20B1EA
:1017F000012805D0022802D002E0002400E00224E3
:1018000003481030C473204670BD0000B80F00209C
:10181000980F0020555342530A490A22012802D04A
:1018200002280CD07047084B1878401CC0B21870C2
:101830000A2804D2062008700120C87070470A7078
:1018400070470000A80F0020840000202DE9F05F01
:101850000D4680460124FEF708FF00282AD0514E8D
:101860000027DFF844B13078DFF840914FF0080AE4
:101870000B281FD2DFE800F0060B2359626E767E3C
:10188000834D9200404600F09FF9012013E0212291
:101890002A75FF226A75EF822F830023404629466E
:1018A0006F831A46FFF75DFB04004FF0020002D081
:1018B000032C02D073E0307071E0707027E0A12239
:1018C0002A75FE226A75EF822F830127364A404629
:1018D00029466F833B460832FFF743FB04004FF075
:1018E000030102D0032C11D059E09BF808208BF89B
:1018F000482012B199F801200AB131704FE089F8FF
:101900000170D5F88000006C804748E071700920B4
:10191000D1E76B79002229464046FFF7F4FA04002C
:101920003DD18BF848707078C5E7404600F030FB39
:1019300008B9042008E0FFF76FFF30E0404600F0F0
:1019400087FA0028F7D1052086F8000089F8007092
:10195000002424E0404600F0C1F90028EBD186F8CD
:1019600000A0F3E7404600F0C3FA0028E3D1707806
:101970003070EDE72946404600F01AF80FE0D5F840
:101980008000C06B804710F0FF0002D0012803D018
:1019900005E086F800A002E0062400E004242046CA
:1019A000BDE8F09FA80F0020B80F002084000020A1
:1019B0002DE9F05F88468146FEF757FE00281DD0CE
:1019C0007E4C05277E4A21797E4D00264FF0080B7C
:1019D0004FF0020A092911D2DFE801F01005123692
:1019E00066AABFD5E200754953781F2230394846B0
:1019F000FFF772FA0120607184F804A0BDE8F09F3F
:101A000051784846FEF7FDFD012806D0022819D07E
:101A10000428F3D101202870BFE068482E613038D7
:101A200084F805A0017B806801F0800100286FD058
:101A30006860A068A860E860802901D0042096E072
:101A4000032094E0607992E0904611784846FEF7D2
:101A5000D8FD012802D0617903291FD003202E610F
:101A60006071B8F8042069688A420ED298F8003094
:101A70004846A968FFF71CFAB8F804006968091A13
:101A80006960A9680844A860B8E7B1B38AB298F859
:101A900000304846A968FFF70BFA37E00428ADD1BB
:101AA0002E70072020710EE0904651784846FEF7D0
:101AB000A8FD012809D002282CD004289ED101209D
:101AC000287084F804B0677198E704202E61607173
:101AD000B8F8062069688A4210D298F80130484662
:101AE000A968FFF7F9F9A868E860B8F80610084493
:101AF000A8606868401A686080E709E041B18AB26E
:101B000098F801304846A968FFF7E6F96E6075E776
:101B1000277173E7D5E9021098F80130B8F806206C
:101B2000814200D0891A4846BDE8F05FFFF7D4B97A
:101B3000224D6771103D3F20A5602946A0810D23ED
:101B4000EE545B1E13F0FF03FAD12E7013783F2280
:101B50004846FFF7ADF9062009E011784846FEF740
:101B600050FD012805D004288ED12E700720207149
:101B700044E72E616771A078207041464846FFF720
:101B80001DFEE0733AE7002241464846FFF7F4FDA8
:101B900070B9287802287FF455AF84F804B02DE797
:101BA000012241464846FFF7E7FD00283FF44AAFCF
:101BB000042889D184F80FA020E70000A80F002096
:101BC000B80F00207000002010B5FEF74EFD002178
:101BD00048B10848064A0260074A42604173054A14
:101BE00001203032D070054801610548017010BDF8
:101BF00055534243780F00205040302070000020A1
:101C00008400002070B50C4D04460026697831B17F
:101C100001F0A5F969782046FFF738FA6E70297847
:101C2000002907D0204601F09AF929782046FFF7CD
:101C30002DFA2E7070BD0000B80F00202DE9FC4178
:101C4000054691F843000C46082803D194F8450056
:101C5000502806D0D1F88000006C80470020BDE8F5
:101C6000FC8194F852001C4E010604D5F070B4F8C3
:101C70005400B08003E0B070B4F85400F08094F8E1
:101C80005A00010604D5F070B4F85C00B08003E09F
:101C9000B070B4F85C00F080B1782846FFF7EEF839
:101CA0007070F1782846FFF7E9F83070F088022765
:101CB000CDE9007004F12004717863782278284619
:101CC00000F06AFAB088CDE9007063782278317844
:101CD000284600F061FAC1E7B80F002070B5032470
:101CE000FEF7C3FC30B32148214D0023C178012207
:101CF000012902D0022936D11DE01E493F24802649
:101D00008C600E730A268E738560052585701025FC
:101D10004E196D1EF37315F0FF05F9D11A23CB731D
:101D20004C74CC740271072101700321C17302212C
:101D3000C170032417E0C17B21B101290ED0022913
:101D40000FD010E0A9780C060949A1F1100101D5C6
:101D50000A7300E00B73C270002404E0C270012417
:101D600001E0C2700224204670BD0000A80F0020D0
:101D7000780D0020780F00202DE9FF4F314E81B003
:101D80004FF0030B824689461C4686F800B0FEF7EA
:101D90006CFCC8B32C4D01274FF00008E8780128EF
:101DA00002D0022849D130E02848802284600273A2
:101DB0000A2282731021C5F808904218491E82F841
:101DC0000F8011F0FF01F8D12821C1739DF80F1089
:101DD00041749DF80E1081749DF80D10C1749DF82A
:101DE0000C100175610AADF800109DF801108175A5
:101DF0009DF80010C17507202F71287085F80FB06D
:101E000002215846E97017E017E0E87B38B95046E0
:101E1000FEF72BFC18B1EF7086F800800DE0E87B30
:101E2000012805D15046FEF720FC08B1EF7004E010
:101E3000E87B022801D1EF703070307805B0BDE842
:101E4000F08F00006E000020A80F0020780F002007
:101E500070B50324FEF709FC20B322480123224970
:101E6000C278012A02D0022A3AD11CE01F4A082473
:101E70009460802414730A24947381600421817017
:101E8000102100245518491EEC7311F0FF01F9D1FF
:101E90002521D1730371072101700321C173022130
:101EA000C17003241CE0C27B22B1012A13D0022A94
:101EB00014D015E00C4A0C78103AD4704C78947019
:101EC0008C785470CC7814708C795472C9791172F2
:101ED000C370002404E0C370012401E0C370022435
:101EE000204670BDA80F0020780D0020780F00203C
:101EF00070B50324FEF7B9FB38B322480123224A08
:101F0000C178012902D0022939D11FE01F493F249D
:101F100080258C600D730A258D73826082784270F3
:101F200006228270102200258E18521EF57312F0C0
:101F3000FF02F9D10322CA730D74CC740371072117
:101F40000170C2730221C170144618E0C17B21B137
:101F500001290FD0022910D011E00B491478103953
:101F6000CC7154788C7194784C71D2780A71C370AA
:101F7000002404E0C370012401E0C3700224204661
:101F800070BD0000A80F0020780D0020780F002001
:101F900070B50324FEF769FB10B31A480123C1781A
:101FA000012902D002292BD11BE0174C0022062167
:101FB000A2602273A173154981603F2181810325AD
:101FC000857010216618491EF27311F0FF01F9D1D6
:101FD000E2730371072101700221C573C1700324EC
:101FE0000EE0C17B21B1012905D0022906D007E00E
:101FF000C370002404E0C370012401E0C370022414
:10200000204670BDA80F0020780F0020980F0020F8
:102010007FB582B00E461D460324FEF726FBA0B313
:1020200023480122C178012902D002293CD12DE0A8
:10203000204900230A248D600B738C731024866062
:102040000E19641EF37314F0FF04F9D12A23CB7325
:102050009DF813304B749DF812308B749DF811303D
:10206000CB749DF810300B756B0AADF800309DF8FD
:1020700001308B759DF80030CB750271072101701E
:102080000321C1730221C17003240DE0C17B21B182
:10209000012905D0022905D006E0C270002403E022
:1020A000C27001E0C270022406B0204670BD00007C
:1020B000A80F0020780F002010B500EB4114DDF8C8
:1020C0000CC00AB184F8AC23B4F8B223624504D042
:1020D000BCF1000F01D0A4F8B2C394F8AF239A4228
:1020E00002D00BB184F8AF3300F058FF002010BDD0
:1020F00038B50546002400200090284601F04EF82F
:10210000002847D0284601F051F80090009808B9FF
:10211000002038BD0098C0F3C00018B1284601F077
:10212000ABFF04430098C0F3001018B1284601F03B
:1021300004FF04430098C0F3401018B1284601F092
:1021400042FD04430098C0F3806018B1284601F0B6
:102150005FFE04430098C0F3406018B1284601F0C8
:102160000AF904430098C0F3006018B1284601F052
:10217000BFFD04430098C0F3407018B1284601F039
:10218000C1F804430098C0F3405018B1284601F04C
:10219000CFF804432046BCE72DE9F04100EB4104B1
:1021A00004F28C55B4F88C45DDE9066C04F07F0729
:1021B00000EB411404F56B7467702D88C5F3C015EE
:1021C000A57022706671A4F806C0E3704FF000029B
:1021D00022766276A4F56B7413B9012284F8B023D9
:1021E00000F0DCFE0020BDE8F08100002DE9FF5F7B
:1021F00006468B4618780E99307058787070914664
:102200009878DA781C4600EB0220708018793071DB
:102210005A7972719A79B271DA79F271227A3272DC
:10222000092969D90921ADF80C1002285BD95FE0B2
:1022300003A92046FEF750FF04464078042852D1F7
:1022400094F9027007EBC70000EB0B0AE078032853
:1022500049D22146684600F053F89DF80400002555
:10226000022840D83BE003A92046FEF735FF04468C
:102270004078052833D109EB071000EBC5081F484B
:102280000078B84202D01D48077007E020796179D4
:1022900000EB012119484088814224D36946504609
:1022A00000F02EF8207888F80000607888F80100A7
:1022B000A07888F80200E07888F803002079617936
:1022C0006D1C00EB0120A8F80400A07988F8060036
:1022D000207961796DB200EB0120084948809DF8B2
:1022E0000400A842BFDC7088BDF80C1088429FD85B
:1022F0000248002141800170BDE8FF9F5800002086
:102300000A7802704A7842708A788270CA78C270FD
:102310000A7902714A7942718A798271CA79C271E5
:10232000097A0172704700002DE9FC410C4606460F
:10233000FEF79BF948B9207838B162A001F0C8FED9
:102340002078022801D0022020702078002704F194
:1023500020050B284ED2DFE800F006159F4D4F7187
:1023600082895E4D8F003046FEF77FF9002841D00C
:102370005BA001F0ADFE01202070BDE8FC416420AF
:1023800000F080BCD4F8800080688047002130468F
:10239000FEF774FD607180213046FEF76FFD2071FD
:1023A0003046FEF765F9002824D155A001F090FED3
:1023B00004F10404E06FC06880473046FEF71BF963
:1023C000C0B26077042104F8041CE16F8969884772
:1023D000A078CDE90070637F227F21783046FFF737
:1023E000DBFEA078CDE90070637F227F6178304604
:1023F000FFF7D2FEBDE8FC8121463046FEF7F2FF32
:102400000028F7D148A001F063FED4F88000406BAB
:102410008047082010E0D4F88000806B80470128B6
:10242000E8D14CA001F054FEE06F2146026830462E
:1024300090470028DED105202070DBE7E06F2146C1
:10244000826830469047010004D14C4801F040FEBC
:102450000620F1E72046BDE8FC41FEF701BEE06F33
:102460002146C268304690470146F3E72146304690
:10247000BDE8FC41FEF7CCBE21463046FEF7D1FD5B
:10248000D4F8800040688047E06F2946426802B077
:102490003046BDE8F0411047D4F88000006980471D
:1024A00021463046FEF7BDFDD4F8800040688047E5
:1024B000E06F29464268304690473046FEF7A5FD5A
:1024C000277097E7636865636B20666F7220486FBB
:1024D000737420706F7274206576656E747300007B
:1024E000484F53545F4445565F4154544143484517
:1024F0004420697320656E7465720D0A0000000047
:10250000484F53545F4445565F41545441434845F6
:10251000442073746174652072657365742064650A
:102520007669636500000000484F53545F454E557F
:102530004D45524154494F4E207374617465206576
:102540006E756D65726174696F6E206973206F6B53
:1025500000000000484F53545F5553525F494E509E
:102560005554207374617465203A20757365725FE9
:10257000696E707574206973206F6B007457000862
:102580000020704730B400230B7505244C75CA82B7
:102590000B834B8330BC1A46FEF7E3BC30B40023F8
:1025A0000B7509244C75CA820B834B8330BC1A46C9
:1025B000FEF7D7BC4879082805D0032806D104497E
:1025C00004A001F085BD02492139F9E770470000F8
:1025D0000657000825730D0A00000000014900207D
:1025E000087070470400002070470000014902A0F5
:1025F00001F06EBD3656000825730D0A000000007C
:10260000014902A001F064BD4A56000825730D0A75
:102610000000000001A001F05BBD00003E20446509
:1026200076696365206E6F7420737570706F727455
:1026300065642E0D0A00000038B1012808D0022878
:1026400009D0064906A001F043BD04495939F9E70C
:1026500002493B39F6E701491D39F3E7D456000832
:1026600025730D0A0000000010B50446018904A07E
:1026700001F02EFD6189BDE8104001A001F028BDE8
:10268000564944203A2025303458680D0A0000008D
:1026900010B5064906A001F01BFD07A001F018FDCA
:1026A000BDE810400FA001F013BD00006156000806
:1026B00025730D0A00000000546F207365652074B7
:1026C000686520726F6F7420636F6E74656E74201E
:1026D0006F6620746865206469736B203A200D0A68
:1026E000000000005072657373204B65792E2E2E0A
:1026F0000D0A0000124810B5817800291ED1012171
:1027000081700020FEF71AF90120FEF717F9022068
:10271000FEF714F90320FEF711F900210220FEF75D
:102720004BF9FEF7C1FA07A001F0D2FC0BA001F0B3
:10273000CFFCBDE8104011A001F0CABC10BD0000E4
:102740000400002020555342204F54472046532078
:102750004D534320486F73740D0A00003E205553BB
:102760004220486F7374206C6962726172792073C1
:102770007461727465642E0D0A0000002020202010
:102780002055534220486F7374204C696272617205
:10279000792076322E312E300D0A000070B592B0BD
:1027A00040224FA16846FDF70BFD5D4C5D4D4FF09B
:1027B000FF36207830B1012820D002282BD0032802
:1027C0001BD171E05849002002F080FA18B157A0DF
:1027D00001F07EFC7AE05EA001F07AFC288929688D
:1027E000414363A001F074FC287B012803D16849B0
:1027F00068A001F06DFC012020706EE0644965A0C6
:102800001C3901F065FC012164A0FDF729FE0020C0
:1028100060700220F0E762A001F05AFC642000F032
:1028200031FA01E0FEF71CFA6448FDF71EFF20B103
:102830000220FEF7B5F80128F4D061A001F048FCB1
:10284000287B0325012811D03749002002F03EFAE9
:102850000A2264A1664802F04DFA60B165A001F059
:1028600037FC25706CA001F033FC36E074A001F059
:102870002FFC257031E03E2210AB69465C4802F027
:102880007EFBBDF8401001B108B176A000E07DA04C
:1028900001F01EFC564802F00FFA0021084602F033
:1028A00015FADEE7FEF7DCF94448FDF7DEFE20B15D
:1028B0000220FEF775F80128F4D04048FDF7D5FE58
:1028C00058B11949002002F001FA10B1304612B097
:1028D00070BD32A0FDF7DCFEF9E70020F7E700004D
:1028E00053544D333220436F6E6E6563746976695D
:1028F0007479206C696E6520486F73742044656D2F
:102900006F206170706C69636174696F6E2075739C
:10291000696E67204641545F465320202000000026
:1029200004000020680D0020140700203E204361B1
:102930006E6E6F7420696E697469616C697A652066
:1029400046696C652053797374656D2E0D0A00001D
:102950003E2046696C652053797374656D20696EFD
:10296000697469616C697A65642E0D0A0000000063
:102970003E204469736B20636170616369747920E0
:102980003A2025642042797465730D0A0000000026
:102990003A57000825730D0A00000000303A2F0056
:1029A0005072657373204B657920746F207772695C
:1029B00074652066696C650D0A000000E400002063
:1029C0003E2057726974696E672046696C65207491
:1029D0006F206469736B20666C617368202E2E2EE5
:1029E0000D0A0000303A53544D33322E54585400DF
:1029F000440900203E2053544D33322E5458542065
:102A00006372656174656420696E20746865206412
:102A100069736B0D0A000000546F20737461727447
:102A200020496D61676520736C6964652073686F08
:102A300077205072657373204B65792E0D0A000064
:102A40003E204469736B20666C6173682069732053
:102A500077726974652070726F7465637465642041
:102A60000D0A00003E2053544D33322E545854204A
:102A700043414E4E4F542062652077726974656EF3
:102A80002E0D0A003E202753544D33322E545854F5
:102A9000272066696C6520637265617465640D0A40
:102AA00000000000014601A001F012BB4D616E75EF
:102AB0006661637475726572203A2025730D0A0091
:102AC00001A001F005BB00004F766572637572725C
:102AD000656E742064657465637465642E0D0A0008
:102AE000014601A001F0F4BA50726F64756374205E
:102AF0003A2025730D0A000070470000014601A02E
:102B000001F0E6BA53657269616C204E756D6265BD
:102B100072203A2025730D0A00000000014902A02E
:102B200001F0D6BA5957000825730D0A00000000BD
:102B300010B500240220FDF733FF00B90124204620
:102B400010BD00001CB501218020FDF779FE082092
:102B5000009003208DF8050001208DF8040000206E
:102B60008DF80600054C8DF8070069462046FDF7F4
:102B7000E5FC08212046FDF738FD1CBD00000240A1
:102B8000044800294FF0080101D0FDF72CBDFDF7E6
:102B90002CBD00000000024008B54FF4C060FDF7F6
:102BA00033FE43208DF8000001208DF80100032141
:102BB0008DF802108DF803006846FDF7F3FD08BD9F
:102BC0003EB501210846FDF73BFE4FF4C050009092
:102BD00003208DF8050002208DF8040000208DF8F8
:102BE0000600194C8DF8070069462046FDF7A6FC43
:102BF0000A220B212046FDF7DFFC0A220C21204689
:102C0000FDF7DAFC01218803FDF73EFE012180205B
:102C1000FDF722FE0021A002FDF700FE4FF4A060A8
:102C2000FDF7F2FD1C208DF8080001208DF8090049
:102C30008DF80A008DF80B0002A8FDF7B3FD012105
:102C40000846FDF715FE3EBD0000024010B501210B
:102C50008C072046FDF7B1FF002809D0012120464E
:102C6000FDF79EFF0649086818B10868401E086015
:102C700010BD2046BDE810400021FDF794BF0000C4
:102C8000000000200121FDF73DBB0221FDF73ABB0A
:102C900070B50446017A0025C068012915D0C168C5
:102CA00041F04001C160204600F086F8617A4FF49F
:102CB000341009B14FF47410E16888631420FFF7F1
:102CC000E1FFE078012819D020E0816B627A21F4DD
:102CD00080310AB141F480118163E068C16821F05C
:102CE000401121F42021C160204600F065F8E07811
:102CF00001280BD1E1682A208860E2E7E06881685A
:102D000021F01E010A3141F020018160284670BD8A
:102D10002DE9F041002704463D463E46FFF712FFED
:102D2000D4F80C010660207A01280FD0012120463A
:102D300000F028FA204600F057FA6069016821F097
:102D400004010160E07A012802D015E00021EEE7DD
:102D5000E06880214162304661F30F00E268602143
:102D600061F31F409062E022304662F30F0061F38E
:102D70001F40E168C1F800011021204600F0B8F8BA
:102D8000204600F097F84FF0FF3107E004EB850094
:102D900050F8902F91600068C6606D1C2078A842A2
:102DA000F4D80121204600F03BF8204600F05EF800
:102DB0003846BDE8F0810000F8B5002605463446E7
:102DC0000096124F0320FFF760FFE868006900904B
:102DD000641CBC4201D90020F8BD00980028F1DA3B
:102DE0000099002041F0010100910099EA68116109
:102DF000E9680A690092401CB84202D8009AD207DA
:102E0000F7D10320FFF741FF3046F8BD400D030026
:102E1000C0680021826822F0010282600846704783
:102E200070B505460C46FFF7ABFE284600F0C3F927
:102E3000C10408D4012C0CD1D5F8CC1040F480503A
:102E40000860C10405D524B9D5F8CC1020F4805011
:102E50000860BDE87040C820FFF714BFC0680021BB
:102E6000826842F0010282600846704710B5C3686C
:102E7000002211469A61C468531E6361C46863608E
:102E8000C4686FF080436361C468094BA361C37871
:102E900003B91021C36841F00C5141F00801986951
:102EA00041F40011884308439861104610BD0000AA
:102EB0000008008038B50024014620460094009A9E
:102EC00042F010020092009ACB681A61074AC96862
:102ED0000B690093401C904202D8009BDB06F7D49C
:102EE0000320FFF7D2FE204638BD0000400D03004E
:102EF00038B50024024620460094009B43F020038E
:102F00000093009B61F38A1300930099D3681961C1
:102F1000074BD1680A690092401C984202D8009A77
:102F20009206F7D40320FFF7B0FE204638BD00001C
:102F3000400D030010B500EB8100002350F8901FF6
:102F40004FF00042012464F3DC420A61006801682A
:102F500021F0804141F000410160184610BD10B5DC
:102F600000EB81010022D1F89030196841F0404116
:102F700011F4402F09D0C1F38144022C05D04069DF
:102F8000006910F47F0F03D004E0C068C06AF8E75E
:102F900021F000411960104610BD0000F0B500EBB3
:102FA00081040025D4F890602F466B1E3A46B3602A
:102FB000C378012B00D1042200EB411393F8B163D5
:102FC00036B1012E1DD0022E02D0032E23D10EE0E9
:102FD00042F0890293F8AE6342F4826276B993F8C4
:102FE000B06342F04002B6B142F0200213E042F07A
:102FF000990293F8AE6342F4C06266B142F4807203
:1030000009E042F0010293F8AE6342F4087216B18F
:1030100042F08002F2E7D4F89060F26001228A4028
:1030200041698E6916438E61C068816941F0007103
:10303000816193F8AC0360F39C5793F8AD0360F3A0
:10304000CE2793F8AE0360F3CF3793F8AF0302288F
:103050000DD027F4003000BF93F8B113B3F8B223BA
:1030600061F3934062F30A00032903D004E047F4BC
:103070000030F1E740F00050D4F890100860284686
:10308000F0BDF0B500EB41140027D4F8BC23064690
:103090004FF480753B466AB1B4F8B2030244521E45
:1030A000B2FBF0F292B2AA4205D900022A46C4F855
:1030B000BC0300E0012294F8AE03A8B1B4F8B20357
:1030C0005043C4F8BC0360F3120362F3DC4394F88A
:1030D000B40306EB810260F35E73D2F890000361E3
:1030E000F078012803D007E0D4F8BC03EBE7D2F86E
:1030F0009030D4F8B803586152F8900F0368304606
:1031000000F046F860F35D73126823F0804040F0F1
:1031100000401060F07898BB94F8AE0380BBD4F800
:10312000BC0368B394F8B12332B1012A11D0022A4A
:1031300002D0032A1AD10CE0F268D36AC01CC0F393
:103140008F009BB2834211D2906940F020009061C1
:103150000CE072691269C01CC0F38F0092B2824207
:1031600004D2F068826942F080628261D4F8BC03C4
:103170000A4683B2D4F8B8030146304600F092FF05
:103180003846F0BD4269106861F301001060704775
:103190004069806840F30000401C7047C068406987
:1031A00000F00100012800D000207047C06841698C
:1031B000806908407047D0F8CC00006820F02E00ED
:1031C0007047406940697047034610B508460021C2
:1031D000D21C9208D3F8D03003E01C6840F8044BAE
:1031E000491C9142F9D310BD70B50546FFF7E3FFC6
:1031F00040F4807455F8CC0F04600A20FFF742FDBC
:10320000296824F4807008601420FFF73BFD01203A
:1032100070BD000070B500220125C2704026857087
:10322000144613468680012901D061B114E0C572AD
:103230000821017004214FF0A04241709115C18016
:103240000221017208E0C3720C2101700621417055
:10325000204A4FF4A061C18002F50061C0E903215A
:1032600000210CE002EB411303F5106500EB810C2B
:1032700003F53063CCF81850491CCCF8543043782F
:103280008B42EFD802F5806141614031C0F8CC102B
:10329000002108E002EB411300EB810503F5A06378
:1032A000491CC5F8903003788B42F3D8002108E020
:1032B00002EB013300EB810503F58053491CC5F88F
:1032C000D03003788B42F3D802F56062C0F80C214D
:1032D000204670BD0000044010B5C2680024D068CC
:1032E000012920F0C04001D019B104E040F00050A5
:1032F00001E040F08040D0603220FFF7C3FC204660
:1033000010BD000038B50446002000900748006852
:10331000816820468847009820F0005000F1005056
:1033200000900098E1684861012038BD68000020E5
:103330000CB50146D1F8900000680090009820F08C
:10334000004000F100400090009820F0804000F123
:1033500080400090009AD1F8900002600020019017
:10336000019820F4001000F5001001900198CA683F
:10337000506101200CBD7CB505460024002628467E
:10338000FFF71FFF019000BF1BE0019880B20121F1
:10339000A140084214D005F1900050F824000068C4
:1033A00000900098C0F3C03028B12146284600F0B4
:1033B0000DF8064304E02146284600F01CFA0643B7
:1033C000641C2878A042E0D830467CBD70B586B039
:1033D00005460C4605F1900050F82460B068059051
:1033E000F0680490DDE904100840059005F19000B4
:1033F00050F8240000680390002004900598C0F362
:103400008000D0B100200190019820F00400001D40
:1034100001900198B06005F1900050F82400C06858
:103420000190019820F00200801C019005F19000AD
:1034300050F824000199C16073E00598C0F3401072
:1034400048B100200190019820F020002030019028
:103450000198B06065E00598C0F3C00078B305F14D
:10346000900050F82400C0680190019820F00200FC
:10347000801C019005F1900050F824000199C16072
:10348000052105F56370015500200190019820F099
:103490001000103001900198B06000200190019858
:1034A00020F00800083001900198B060059820F0E5
:1034B00010000590E1B22846FFF751FD31E0FFE72B
:1034C0000598C0F3802060B305F1900050F8240007
:1034D000C0680190019820F00200801C019005F165
:1034E000900050F824000199C160E1B22846FFF72E
:1034F00036FD00200190019820F01000103001905E
:103500000198B060082105F5637001550020019015
:10351000019820F4806000F5806001900198B0600F
:1035200000BF0598C0F34020F8B105F1900050F8B5
:103530002400C0680190019820F00200801C0190D6
:1035400005F1900050F824000199C160E1B22846CD
:10355000FFF705FD00200190019820F4007000F5B0
:10356000007001900198B06042E10598C0F300003E
:10357000002871D0E878012812D105F1900050F8A8
:1035800024000069029005F56B7000EB441000699F
:103590000299C1F31201411A05F5547040F8241044
:1035A000012105F5637001550021783840F8241099
:1035B00000200190019820F00100401C019001982A
:1035C000B0600398C0F3814020B10398C0F38140FC
:1035D00002282AD105F1900050F82400C06801901B
:1035E000019820F00200801C019005F1900050F835
:1035F00024000199C160E1B22846FFF7B0FC002029
:103600000190019820F01000103001900198B060F6
:1036100005F56B7000EB4410007E80F0010105F5AC
:103620006B7000EB44100176E2E00398C0F3814038
:10363000032899D1039820F0005000F10050039026
:1036400005F1900050F8240003990160012105F272
:103650009B300155CCE0FFE70598C0F340000028FF
:1036600051D005F1900050F82400C06801900198F5
:1036700020F00200019005F1900050F8240001991B
:10368000C16005F56370005D012804D1012105F2D8
:103690009B3001552DE005F56370005D052804D1D0
:1036A000042105F29B30015523E005F56370005DB0
:1036B000062804D005F56370005D082808D10021B4
:1036C00005F5457040F8241003218730015510E0BE
:1036D0000398C0F3814003280BD105F56B7000EB14
:1036E0004410007E80F0010105F56B7000EB441082
:1036F000017600200190019820F00200801C0190CA
:103700000198B06074E00598C0F3C01040B305F1B3
:10371000900050F82400C0680190019820F0020049
:10372000801C019005F1900050F824000199C160BF
:1037300005F5457050F82410491C40F82410062166
:1037400078300155E1B22846FFF709FC00200190CE
:10375000019820F08000803001900198B06047E02F
:103760000598C0F30010E8B30398C0F38140032824
:1037700015D105F1900050F82400C068019001981F
:1037800020F00200801C019005F1900050F8240008
:103790000199C160E1B22846FFF7E1FB18E0039808
:1037A000C0F3814020B10398C0F3814002280FD1BB
:1037B000039820F0004000F100400390039820F0AF
:1037C0008040039005F1900050F8240003990160B7
:1037D000032105F56370015500200190019820F048
:1037E000100000E004E0103001900198B06000BFCC
:1037F000012006B070BD7FB505460C4605F190006E
:1038000050F82460B0680390F0680290DDE902107F
:103810000840039005F1900050F8240000680190E2
:103820000398C0F38000D0B100200090009820F0F1
:103830000400001D00900098B06005F1900050F861
:103840002400C0680090009820F00200801C0090C6
:1038500005F1900050F824000099C160B0E1039890
:10386000C0F3401048B100200090009820F02000E4
:10387000203000900098B060A2E10398C0F340208F
:10388000F8B105F1900050F82400C068009000984D
:1038900020F00200801C009005F1900050F82400F8
:1038A0000099C160E1B22846FFF759FB0020009063
:1038B000009820F4007000F5007000900098B0604F
:1038C0007EE10398C0F3000038B3002105F5457090
:1038D00040F8241005F1900050F82400C0680090D2
:1038E000009820F00200801C009005F1900050F834
:1038F00024000099C160E1B22846FFF730FB0020A8
:103900000090009820F00100401C00900098B060EA
:10391000012105F56370015552E10398C0F3C00021
:1039200010B300200090009820F0080008300090AC
:103930000098B06005F1900050F82400C068009035
:10394000009820F00200801C009005F1900050F8D3
:1039500024000099C160E1B22846FFF700FB052171
:1039600005F5637001552BE10398C0F3001038B3DF
:10397000002105F5457040F8241005F1900050F83D
:103980002400C0680090009820F00200801C009085
:1039900005F1900050F824000099C160E1B228467A
:1039A000FFF7DDFA00200090009820F010001030A2
:1039B00000900098B060032105F563700155FFE0A9
:1039C0000398C0F3C01040B305F1900050F82400F4
:1039D000C0680090009820F00200801C009005F163
:1039E000900050F824000099C160E1B22846FFF72A
:1039F000B6FA05F5457050F82410491C40F824101B
:103A000006217830015500200090009820F08000B9
:103A1000803000900098B060D2E00398C0F380102E
:103A200038B3002105F5457040F8241005F19000E9
:103A300050F82400C0680090009820F00200801C1C
:103A4000009005F1900050F824000099C160E1B2A7
:103A50002846FFF784FA00200090009820F04000EC
:103A6000403000900098B060042105F56370015566
:103A7000A6E00398C0F3802060B305F1900050F8F1
:103A80002400C0680090009820F00200801C009084
:103A900005F1900050F824000099C160E1B2284679
:103AA000FFF75DFA00200090009820F01000103021
:103AB00000900098B060082105F563700155002062
:103AC0000090009820F4806000F5806000900098DD
:103AD000B06075E00398C0F34000002870D005F195
:103AE000900050F82400C0680090009820F0020078
:103AF000009005F1900050F824000099C16005F590
:103B00006370005D012815D1012105F29B3001553C
:103B10000198C0F38140022848D105F56B7000EB95
:103B20004410407E80F0010105F56B7000EB4410FD
:103B300041763BE005F56370005D032804D1022166
:103B400005F29B30015531E005F56370005D0428F6
:103B50000FD105F56B7000EB44100079012803D1FB
:103B6000E1B22846FFF7E6F9022105F29B30015544
:103B70001CE005F56370005D052804D1042105F201
:103B80009B30015512E005F56370005D06280DD1EC
:103B900005F5457050F82400032807D1032105F2EC
:103BA0009B3001550021873840F8241000200090F8
:103BB000009820F00200801C00900098B06000BFC8
:103BC000012004B070BD7FB50446E068C06A009073
:103BD0000198C0F3C30104F56B7000EB411000695C
:103BE000C01CC0F38F0671E000988004050C01989A
:103BF000C0F3C30104F56B7000EB41100069A842EB
:103C000015D20198C0F3C30104F56B7000EB4110AD
:103C1000006985B200200390039820F02000203036
:103C20000390E068806903998843E168886101989E
:103C3000C0F3C30104F56B7000EB41100069C01CB8
:103C4000C0F38F060198C0F3C302C0F3C30304F5A9
:103C50006B7000EB43102B46C168204600F022FA3F
:103C60000198C0F3C30104F56B7000EB4110C0680C
:103C700041190198C0F3C30204F56B7000EB4210C8
:103C8000C1600198C0F3C30104F56B7000EB4110F3
:103C90000069411B0198C0F3C30204F56B7000EB8F
:103CA000421001610198C0F3C30104F56B7000EB91
:103CB0004110406941190198C0F3C30204F56B70CB
:103CC00000EB42104161E068C06A0090009880B249
:103CD000B0420ADD0198C0F3C30104F56B7000EB3C
:103CE0004110006900287FF47FAF012004B070BD4F
:103CF000FEB50446002600250020009002900190A9
:103D0000D4F8CC0000680290D4F8CC000068019090
:103D1000019820F004000190019820F00200019029
:103D2000019820F008000190019820F020000190F7
:103D30000298C0F3400058B1019820F00200801CA6
:103D400001903248006841682046884745F00105E7
:103D50000298C0F3C000002842D0019820F008006B
:103D6000083001900298C0F38000012838D127481C
:103D700000684168204688470298C0F34140022805
:103D800004D00298C0F34140012828D1606900683E
:103D900000900298C0F34140022811D141F27071A5
:103DA000606941600098C0F30100022818D0207AB1
:103DB000022803D102212046FFF7E4F901260FE093
:103DC0004BF68031606941600098C0F30100012822
:103DD00006D001212046FFF7D5F9012600E0012693
:103DE0000298C0F3401030B1019820F0200020303C
:103DF000019045F0010516B12046FFF7F5F901994C
:103E0000D4F8CC0001602846FEBD00006800002008
:103E1000FEB504466069006900900198C0F3C301D3
:103E200004F56B7000EB41100069C01CC0F38F06F5
:103E300072E000988004050C0198C0F3C30104F5FA
:103E40006B7000EB41100069A84216D20198C0F3D4
:103E5000C30104F56B7000EB4110006985B20020CE
:103E60000290029820F0806000F180600290E0688B
:103E7000806902998843E16888610198C0F3C301B1
:103E800004F56B7000EB41100069C01CC0F38F0695
:103E90000198C0F3C302C0F3C30304F56B7000EBD9
:103EA00043102B46C168204600F0FCF80198C0F38F
:103EB000C30104F56B7000EB4110C0684119019813
:103EC000C0F3C30204F56B7000EB4210C1600198AF
:103ED000C0F3C30104F56B7000EB41100069411B96
:103EE0000198C0F3C30204F56B7000EB421001614E
:103EF0000198C0F3C30104F56B7000EB41104069F9
:103F000041190198C0F3C30204F56B7000EB421035
:103F10004161606900690090009880B2B0420ADD9A
:103F20000198C0F3C30104F56B7000EB4110006908
:103F300000287FF47EAF0120FEBD7FB5044600253A
:103F400000200290029820F0100010300290E068EB
:103F5000806902998843E1688861E068006A03909B
:103F60000398C0F3030504F1900050F825000068A1
:103F700000900398C0F34340022806D0032869D07C
:103F8000052868D0072864D166E00398C0F30A10BA
:103F900000285DDD04F56B7000EB4510C06800285B
:103FA00056D00398C0F30A1204F56B7000EB45106D
:103FB000C1682046FFF708F90398C0F3030104F530
:103FC0006B7000EB4110C0680399C1F30A11014402
:103FD0000398C0F3030204F56B7000EB4210C1605C
:103FE0000398C0F3030104F56B7000EB41104069C6
:103FF0000399C1F30A1101440398C0F3030204F5C5
:104000006B7000EB4210416104F56B7000EB4510E2
:10401000466904F5547040F8256004F1900050F8AA
:104020002500006901900198C0F3C94000280FDD08
:10403000009820F0004000F100400090009820F02F
:104040008040009004F1900050F825000099016034
:1040500003E000BF00BF00BF00BF00BF029820F018
:10406000100010300290E068806902990843E1680E
:104070008861012004B070BD38B50446002000906E
:1040800007480068016820468847009820F008002B
:10409000083000900098E1684861012038BD0000B8
:1040A0006800002030B5C47800256CB900EB8200B0
:1040B0000024DB1C9B08D0F8D00003E051F8042B4F
:1040C0000260641C9C42F9D3284630BDFEE7000024
:1040D0000FB4054B10B503A9044A029800F018F874
:1040E00010BC5DF814FB0000D951000854000020FA
:1040F00002E008C8121F08C1002AFAD170477047B1
:10410000002001E001C1121F002AFBD1704700000E
:104110002DE9FF4F8DB005460F460026E9E1252821
:1041200079D100246D1CF74AA246A14601212B78C3
:10413000203B01FA03F0104202D004436D1CF6E765
:1041400028782A2810D06FF02F022878A0F13001AB
:10415000092915D80AEB8A0102EB410144F0020457
:1041600000EB010A6D1CF0E757F804ABBAF1000F41
:1041700003DA44F40054CAF1000A44F002046D1C4E
:1041800028782E2817D115F8010F44F004042A28A6
:104190000ED06FF02F022878A0F1300109290AD83B
:1041A00009EB890102EB410100EB01096D1CF2E70B
:1041B00057F8049B6D1C28786C280FD006DC4C281F
:1041C00017D068280DD06A2814D104E0742810D0C4
:1041D0007A280FD10DE044F400140AE044F480146E
:1041E00001E044F440146978814202D16D1C04F569
:1041F00080146D1C95F800C0BCF16E0F2AD012DC43
:10420000BCF1630F3CD007DCBCF1000F76D0BCF1F1
:10421000580F19D1A7E018E0BCF1640F6FD0BCF1C2
:10422000690F11D16BE0BCF1730F32D006DCBCF129
:104230006F0F71D0BCF1700F06D196E0BCF1750F15
:104240006BD0BCF1780F69D06046DDE90F12904762
:10425000761C4DE1C4F30250022806D003280AD090
:10426000042801CF0AD0066042E101CF4FEAE6718F
:10427000C0E900613CE101CF068039E1067037E119
:1042800001CF8DF8000000208DF80100EB460120E1
:1042900003E057F804BB4FF0FF3061074FF0000117
:1042A00002D40DE008F10101884649450FDA804546
:1042B000F8DB1BF808100029F4D108E008F101012F
:1042C00088468142FADB1BF808100029F6D1DDE9A7
:1042D0000F23AAEB08008146214600F03CF9304448
:1042E00000EB080604E0DDE90F121BF8010B904714
:1042F000B8F10108F7D221464846F4E0FDE00A2172
:10430000C4F302524FF0000B0891022A07D001CFEC
:10431000C117032A09D00AE030E022E023E0FF1DA4
:1043200027F00707F7E8020105E000B2C117042AE9
:1043300001D140B2C117002906DA0023D0EB0300F7
:1043400063EB01012D2202E0220504D52B228DF81A
:104350002420012203E0E20701D02022F7E7904663
:104360004EE00A210BE0102109E010214FF0000B74
:1043700044F004044FF00809089103E008214FF0CD
:10438000000B0891C4F30252022A04D001CF00218D
:10439000032A06D007E0FF1D27F00707F7E8020110
:1043A00005E080B20021042A01D1C0B200214FF003
:1043B0000008220724D5BCF1700F29D0089B83F098
:1043C000100353EA0B0309D150EA010206D0302250
:1043D0008DF824208DF825C002229046089B83F09A
:1043E000080353EA0B030BD150EA010201D1620723
:1043F00006D530228DF824204FF00108A9F10109DB
:10440000BCF1580F09D040A20B9208AA0A9211E001
:1044100040228DF824200122DFE740A2F4E75B462A
:10442000089AFBF70CFF0B9B9B5C0A9AA2F1010216
:104430000A92137050EA0102F1D10A98ADEB000024
:1044400000F1200B600702D524F4803401E04FF026
:104450000109D94502DDA9EB0B0000E0002000EBCB
:104460000B0141440890AAEB01000B90E00306D435
:10447000DDE90F2321460B9800F06DF806444FF05C
:1044800000090DF1240A07E0DDE90F121AF809000E
:104490009047761C09F10109C145F5DBE0030CD515
:1044A000DDE90F2321460B9800F055F8064404E09F
:1044B000DDE90F1230209047761C0899481E0890BD
:1044C0000029F5DC08E00A980A990078491C0A914D
:1044D000DDE90F129047761CBBF10001ABF1010B37
:1044E000F1DC0B982146DDE90F2300F021F80644AA
:1044F0006D1C287800287FF412AE11B03046BDE85C
:10450000F08F00000928010030313233343536375E
:10451000383961626364656600000000303132330F
:1045200034353637383941424344454600000000AF
:104530002DE9F0410446002517461E46880405D49F
:1045400006E039462020B04705F10105641EF8D584
:104550002846BDE8F0812DE9F0410446002590464B
:104560001E46C80301D5302700E02027880405D562
:1045700006E041463846B04705F10105641EF8D50E
:104580002846BDE8F081000010B504460A46407890
:10459000012304F1300100F01FFB08B1032010BD1E
:1045A000B4F82E02A0F52A41553901D0022010BDE1
:1045B00094F86600D4F8671040EA01210848B0EB8F
:1045C000012F08D094F88210D4F8832041EA022108
:1045D000B0EB012F01D1002010BD012010BD000063
:1045E000004641542DE9F0410B46016816460D780E
:1045F000303D092D02D84A783A2A01D0002506E03C
:10460000891C0160022D02D30B20BDE8F0816648B1
:1046100050F825401C6094B1207820B1607800F0FB
:104620000DFBC1070DD04FF0000884F80080E8B200
:10463000607000F0A1FAC10708D00320E5E70C2064
:10464000E3E70EB1400704D40020DEE71EB14007C7
:1046500001D50A20D9E700210E462046FFF794FF36
:1046600001280CD104F5F770017999B1017AD0F8DD
:10467000090041EA002631462046FFF785FF03285E
:1046800001D038B901E00120BFE7B4F83B00B0F534
:10469000007F01D00D20B8E7B4F8461029B994F88E
:1046A0005400D4F8551040EA0121A16194F840006B
:1046B000E070E38F48439919216294F83DC084F873
:1046C00002C0B4F841202281B4F843502DB994F8C7
:1046D0005050D4F8517045EA0725EB1A1B1AA3EB8A
:1046E0001213B3FBFCF39B1C012540F6F777E36143
:1046F000BB4200D302254FF6F777BB4201D3032517
:1047000010E0032D0ED00B1800EB12100844C4E982
:1047100009304FF0FF302061474684F80480032DB4
:1047200007D038E094F85C30D4F85D7043EA072392
:10473000EAE76771B4F8600001238219626160786A
:1047400004F1300100F048FA28BBB4F82E02A0F5BD
:104750002A4155391FD194F83000D4F8311040EA7D
:1047600001201249884216D194F81402D4F8151287
:1047700040EA01200E4988420DD194F81C02D4F879
:104780001D1240EA0120E06094F81802D4F81912D2
:1047900040EA0120206104492570091FE76208886A
:1047A000401C0880E0804FE7A00000205252614189
:1047B00072724161C269891E921E8A4201D800202C
:1047C0007047826A807801FB002070472DE9F04134
:1047D000C76906465FEA010806D000F00FFD02280F
:1047E00008D20120BDE8F081F5680DB1BD4204D3C7
:1047F000012502E0B842F5D345462C46641CBC4274
:1048000002D30224022D0AD32146304600F0F6FCE2
:1048100038B1411CE6D00128E4D0AC42EED10020F2
:10482000E0E76FF070422146304600F0EEFD4FF0B9
:10483000FF3540B9B8F1000F07D022464146304657
:1048400000F0E3FD08B12846CCE7F4603069411C74
:1048500003D0401E3061012070712046C2E7000085
:104860002DE9F04784698A460B222021204600F07A
:1048700090FD00229146DAF800604B464FF00808A0
:10488000F05C5B1C20283AD92F2838D05C2836D021
:104890002E2801D0C1450BDBB8F1080F3ED12E28E0
:1048A0003CD190064FF008094FF00B08020EE7E7E5
:1048B000802803D3264D284410F8800C25A50746F0
:1048C00000E06D1C95F800C0BCF1000F02D0BC45A3
:1048D000F7D123E0A0F14105192D02D842F00202E0
:1048E00008E0A0F16105192D04D8A7F1200042F0DD
:1048F0000102C0B204F8090009F10109C0E7F1188A
:10490000CAF80010202801D8042000E00020B9F1E6
:10491000000F03D02178E52903D004E00620BDE88C
:10492000F08705212170B8F1080F01D191060A0E18
:1049300002F00301012901D140F01000C2F381010E
:10494000012901D140F00800E0720020E7E70000F3
:10495000C057000820222A2B2C5B3D5D7C7F000085
:104960002DE9F0410446C0880F46401C0604360C71
:104970002DD0206958B331075ED1401C2061E16819
:10498000206829B18278521E12EA161F04D053E023
:104990000089B0421BD94FE000F030FC05460128E9
:1049A0001AD9681C33D02068C169A9423ED877B1B2
:1049B000E168FFF70BFF05000CD0012D0CD0681C3F
:1049C00025D00021206800F0EBFC00BB06E00420AD
:1049D000BDE8F0810720FBE70220F9E720684FF4EB
:1049E00000723030002100F0D4FC29462068FFF727
:1049F000E1FE216800274FF00108C8620FE000BF08
:104A000080F804800021206800F0CAFC08B1012071
:104A1000DEE72068C16A491C7F1CFFB2C1622068C2
:104A20008178B942ECD8C16AC91BC162E5602946E8
:104A30002068FFF7BFFE2061E68006F00F013022FC
:104A4000206802EB4111084460610020C0E710B506
:104A50000446042015E0206800F0A2FCB0B96269A9
:104A6000117861B1E52904D02E2902D0D17A090745
:104A70000ED500212046FFF773FF10B106E0042099
:104A800004E021690029E6D1002801D0002121613C
:104A900010BD70B50446002100F02EF80EE021692B
:104AA000206800F07DFC050024D160690078E528CD
:104AB00007D030B101212046FFF752FF0500EED0AC
:104AC00018E02169206800F06BFC050012D16669CE
:104AD00020220021304600F05CFC0B223046A16908
:104AE00000F04EFCA069C07A00F018003073216815
:104AF00001200871284670BD70B50D46C1808168DF
:104B0000044601291ED02068C2698A421AD921B9F7
:104B10000278032A04D1416A11B18078060117E0B6
:104B2000E1600189A9420DD9406A17E0206800F0D0
:104B300065FB0146401C07D0022903D32068C069E9
:104B4000884203D8022070BD012070BDA81B85B229
:104B5000B542EBD2E1602068FFF72CFE00EB1510A8
:104B6000206105F00F013022206802EB411108445A
:104B70006061002070BD000010B50548FBF775FDB1
:104B8000044918B1087820F001000870087810BDB9
:104B9000E40000209800002078B90D4B01201B781C
:104BA000DB0701D00320704771B1012907D04FF412
:104BB0000073022907D0032908D004207047054854
:104BC0000068106000E01380002070471360704799
:104BD00098000020680D00202DE9F0410E46174690
:104BE0001C4638B934B112480078C00704D00320FD
:104BF000BDE8F0810420FBE70E48FBF736FDA0B1CD
:104C000065022B463A4631460A48FDF7B5F8044698
:104C100009490848FCF7CCFE0648FBF726FD10B111
:104C2000032CEED00CB10120E2E70020E0E7000009
:104C300098000020E40000209006002008B1012028
:104C40007047014800787047980000202DE9F04136
:104C50000E4617461C4638B934B114480178C907C6
:104C600004D00320BDE8F0810420FBE70078400772
:104C700001D50220F6E70E48FBF7F7FCA0B165026C
:104C80002B463A4631460A48FDF7C2F9044609491F
:104C90000748FCF78DFE0648FBF7E7FC10B1032C34
:104CA000EED00CB10120DDE70020DBE7980000200A
:104CB000E40000209006002010B5044600F00DF935
:104CC000002801D10021216010BD000010B502288C
:104CD00001D30B2010BD064B002453F8202002B155
:104CE000147001B10C7043F82010002010BD0000BA
:104CF000A00000202DE9F7478BB04FF000090646D1
:104D000002F01F05C0F8009005F01E0269460CA8CD
:104D1000FFF768FC00281BD107A8069068460C998D
:104D200000F0F8F915F01C0F5CD04FF0010A60B1EB
:104D300004280DD16846FFF7ACFE002808D145F0E5
:104D40000805059C280737D45BE0680703D50820D1
:104D50000EB0BDE8F087059CF4B3E07A10F0110FB7
:104D60004DD128074DD5A08A678B84F8149084F81C
:104D7000159084F81A9084F81B9084F81C9084F89D
:104D80001D9084F81E9084F81F90009960F31F47CF
:104D900081F804A00098D0F82C803FB1394600F08B
:104DA000ADFB0028D4D100987F1EC7604146009813
:104DB00000F0F6FA0028CBD184F80B9000F078FAD6
:104DC000A0734FEA1021E1734FEA104121744FEABA
:104DD00010606074009900E011E081F804A045F0D3
:104DE00020050EE00028B3D1059C14B1E07AC1067D
:104DF00001D50420ACE7A90703D5C00701D00720DF
:104E0000A6E70098C06AF06105983062B571A18A82
:104E1000608B61F31F403061207FD4F81D1040EAA1
:104E20000120C6E90290FF21F171C6F818900098A0
:104E300030600098C088B080002089E713B584B046
:104E400004460146002205A8FFF7CCFB00281AD132
:104E5000C4F818D02046059900F05CF980B9606963
:104E600038B1C17AC9060DD5818A408B61F31F40E4
:104E7000A06020680021C088A0802046FFF73CFE8B
:104E8000042800D1052006B010BDFEB50D4604462D
:104E90008188006800F0BFFB002816D1C4F818D044
:104EA000A5B12046FFF7D3FD0026042813D0002823
:104EB0000BD12946204600F0FDF900212046FFF7DE
:104EC0004FFD042801D100202661FEBD00212046AF
:104ED000FFF712FEFEBD2661EBE770B50446818840
:104EE000006800F098FB00280ED1A1798A060BD546
:104EF00048060ED52068012304F124014078A269F8
:104F0000FFF7A4FE08B1012070BDA07920F0400099
:104F1000A071E169206800F043FA0028F4D1256A05
:104F2000E87A40F02000E872E0682877E068000A3C
:104F30006877E068000CA877E068000EE8772069E1
:104F4000A8762069000AE8762069000C2875206997
:104F5000000E687500F0ACF9A875010AE975010C3E
:104F60002976000E6876A07920F02000A0712168D3
:104F7000012008712068BDE8704000F0F0BA2DE90A
:104F8000F05F4FF0000B0F46C3F800B00446818875
:104F900015469846006800F03EFB002803D1A07932
:104FA000010602D50220BDE8F09F800701D407204A
:104FB000F9E7E06804F124094119814279D39BE0C3
:104FC000A068C1057CD12368E1799A7891420DD31C
:104FD000C0B118466169FFF7F9FB002869D00128C4
:104FE00035D0411C5FD0606184F807B0A0794006DD
:104FF00015D52068012349464078A269FFF726FEAF
:10500000E0BB08E020690028E9D100211846FFF73D
:10501000DDFB2061E1E7A07920F04000A07161692B
:105020002068FFF7C7FB90B1E3796E0A03EB000A33
:105030002AD0206899198278914200D9D61A4078EE
:10504000F3B252463946FFF701FEB8B904E0A07941
:1050500040F08000A071A5E7A069A0EB0A00B04273
:105060000AD207EB40214FF40072484600F088F95D
:10507000A07920F04000A071E07900E013E050FA40
:1050800086F0E07176022DE0A069504513D0D4E996
:10509000020188420FD220680123524640784946D7
:1050A000FFF79AFD38B1A07940F08000A07101208F
:1050B00079E724E004E0C4F818A0E079401CE0712E
:1050C000A068C0F30800C0F50076AE4200D92E46B5
:1050D000204424303246394600F052F9A07940F09D
:1050E0004000A071A06837443044A060D8F80000A8
:1050F000AD1B3044C8F80000002D7FF461AFD4E947
:105100000201884200D9E060A07940F02000A0713F
:10511000002048E773B50446019801E0401C019067
:1051200001782029FAD001782F2901D05C2901D1FA
:10513000401C01900025A56001980078202805D228
:1051400000212046FFF7D8FC65617CBD01A92046FF
:10515000FFF786FB0028F8D100212046FFF7CCFCA2
:1051600010BB2169206800F01BF9E8B961690A7871
:105170002AB1CA7A120711D40A23A26903E00420D3
:1051800012E05B1E07D311F8015B12F8016BB5EB5F
:10519000060CF6D002E0BCF1000F05D0002120463D
:1051A000FFF7DEFB0028DCD0A169C97A01F0040119
:1051B00028B10428C9D10029C7D105207CBD002908
:1051C000FCD16069C17AC906F7D5818A408B61F349
:1051D0001F40A060BAE7000070B5074D0446C1B299
:1051E0002846FBF747FE40212846FBF7B7FD00287D
:1051F000F9D0204670BD0000001001402DE9F041BB
:1052000005460C46022902D3E869A04202D80120D3
:10521000BDE8F08128782E6A012804D0022824D025
:10522000032833D12CE004EB540706EB5721284622
:1052300000F0B6F850BBC7F3080028447F1C90F874
:10524000308006EB5721284600F0AAF8F0B9C7F3E2
:1052500008002844E10790F8300048EA002001D017
:105260000009D5E7C0F30B00D2E706EB142128466E
:1052700000F096F850B9E0B205EB4000008EC7E7A9
:1052800006EBD411284600F08BF810B14FF0FF3038
:10529000BEE7A1B240F2FF1000EA8100284490F876
:1052A0003010D0F8310041EA002020F07040AFE724
:1052B0000020704710B5036901F1090273B340691A
:1052C0005FF0000310F803C0BCF1200F09D0BCF15F
:1052D000050F01D14FF0E50C5B1C02F801CB082B48
:1052E000F0DB037A202B0DD02E2302F8013B08239C
:1052F00010F803C0BCF1200F04D05B1C02F801CBF6
:105300000B2BF5DBC37A0B72037FD0F81D4043EA09
:1053100004230B60038B8B80C08AC8800020107030
:1053200010BD000008B51348144A00900024124B29
:105330000121A2F2AC50FCF7FDF90520FDF7A2FC1B
:105340004FF480350D49A1F2AC50FCF7EDFF20463B
:10535000641CA842F6D10020FBF714FB0120FBF7E8
:1053600011FB0220FBF70EFB0320FBF70BFB0024D5
:10537000E8E700000C0000208800002090060020D4
:1053800004E000BF11F8013B00F8013B521EF9D2C6
:105390007047C9B201E000F8011B521EFBD27047F2
:1053A0002DE9F041C56A0F460446BD422BD0207955
:1053B00004F13008D8B1607801232A464146FFF74E
:1053C00045FCE0B900202071A169206A0844A84288
:1053D0000DD9E67809E0A0690123054460782A46E2
:1053E0004146FFF733FC761EF6B2012EF3D857B1D3
:1053F000607801233A464146FFF7EEFB10B10120E9
:10540000BDE8F081E7620020FAE72DE9F05F05468C
:105410000C461646022902D3E869A04202D80220AF
:10542000BDE8F09F28782F6A06F0FF084FF0010BC7
:1054300001280BD01FFA86FA4FEA1A29022838D021
:10544000032845D0022085F804B0E9E704EB5409AD
:1054500007EB59212846FFF7A3FF0028F3D1C9F332
:10546000080028443030E10704D0414690F800801D
:1054700061F31F1880F8008009F1010985F804B074
:1054800007EB59212846FFF78BFF0028DBD1C9F332
:10549000080129443031E20702D0C6F3071206E0C2
:1054A0000A78330A02F0F002C3F303031A430A70C6
:1054B000C9E707EB14212846FFF772FF0028C2D185
:1054C000E1B205EB410181F830A081F83190BAE7F3
:1054D00007EBD4112846FFF763FF0028B3D1A2B22F
:1054E00040F2FF1101EA82012944320C01F8308FA9
:1054F00081F801908A70320ECA70A4E72DE9F0415C
:1055000006460C46022918D3F069A04215D9002599
:105510004FF001081DE021463046FFF76FFE0700FF
:105520001AD0012F09D0781C09D00022214630461C
:10553000FFF76BFF05000FD103E002250CE001250A
:105540000AE03069411C03D0401C306186F80580B8
:105550003C46F069A042DED82846BDE8F0812DE93E
:10556000F04104460021FFF71BFF050050D12078D1
:10557000032846D16079F0B3002704F130004FF4DE
:10558000007239460646E762FFF703FF552084F8AC
:105590002E02AA2084F82F02522084F8300084F8CA
:1055A0003100612084F83200412184F833107222E6
:1055B00084F8142284F8152284F8161284F817024D
:1055C000206984F81802010A84F81912010C84F881
:1055D0001A12000E84F81B02E06884F81C02010A0B
:1055E00084F81D12010C000E84F81E1284F81F02AC
:1055F0006078012300E004E031466269FFF726FB92
:105600006771002260781146FFF7C6FA00B10125E4
:105610002846BDE8F08110B520B1027812B1C288E9
:105620008A4201D0092010BD4078FFF707FBC00770
:10563000F9D0032010BD3E204465766963652041A2
:1056400074746163686564200A003E20446576696D
:10565000636520446973636F6E6E65637465640A85
:10566000003E20456E756D65726174696F6E2063D2
:105670006F6D706C65746564200A003E2048696730
:10568000682073706565642064657669636520646D
:10569000657465637465640A003E2046756C6C2011
:1056A00073706565642064657669636520646574FC
:1056B00065637465640A003E204C6F7720737065E3
:1056C00065642064657669636520646574656374E8
:1056D00065640A003E2044657669636520666175ED
:1056E0006C74200A003E204D6173732073746F72D6
:1056F0006167652064657669636520636F6E6E65BA
:10570000637465640A003E204849442064657669F4
:10571000636520636F6E6E65637465640A003E2086
:105720004578706C6F72696E67206469736B206670
:105730006C617368202E2E2E0A003E20546865206E
:105740006469736B20697320777269746520707265
:105750006F7465637465640A003E20554E5245437C
:105760004F5645524544204552524F5220535441C2
:1057700054450A00484F53545F434C4153535F52C2
:10578000455155455354207374617465203A206324
:105790006F6E746F6C2072657175657374732069B8
:1057A00073206F6B20616E6420686F737420636C6C
:1057B00061737320697320656E7465720000000068
:1057C000808182838485868788898A8B8C8D8E8F61
:1057D00090919293949596979899AD9B8C9DAE9F3E
:1057E000A021A2A3A4A5A6A7A8A9AAABACADAEAFC1
:1057F000B0B1B2B3B4B5B6B7B8B9BABBBCBDBEBF31
:10580000C0C1C2C3C4C5C6C7C8C9CACBCCCDCECF20
:10581000D0D1D2D3D4D5D6D7D8D9DADBDCDDDEDF10
:10582000C0C1C2C3C4C5C6C7C8C9CACBCCCDCECF00
:10583000D0D1D2D3D4D5D6F7D8D9DADBDCDDDE9F10
:1058400000401F0000A00F0000D0070000E8030088
:1058500000F4010000FA0000007D0000803E00001E
:10586000401F0000A00F000000000000008000406A
:105870000020001000080040002000100008000474
:1058800000020000000400080A000B0007000700E7
:1058900000000400040000000400000001000020DB
:1058A00000800100002000800000020006000000CF
:1058B0000D000F0006002800280040000001000233
:1058C00080000000400000004000000000010000D7
:1058D000040000000100000004000000400000007F
:1058E0000059000800000020E4000000F04000081B
:1058F000E4590008E40000202413000000410008DF
:10590000000000000000000000000000F526000874
:10591000DD250008ED250008F92A00080126000809
:10592000C12A00083926000869260008E925000870
:10593000B5250008A52A0008E12A0008FD2A00086C
:1059400091260008312B00089D2700081526000825
:105950001D2B000800000000000000008125000849
:10596000350F0008571000085C00002000000300FD
:105970000000000000000000000000000000000027
:1059800000000000000000003D1C0008051C00088D
:10599000B11700084D1800080100000000000000C9
:1059A00000000000000000000000000001020304ED
:1059B00001020304060708090048004000080240ED
:1059C00000080240000000000018024000180240D9
:1059D000002002400008024000000240000802408F
:0459E0000018024069
:040000050800018965
:00000001FF
